{
  "_format": "hh3-artifact-1",
  "contractName": "PolDOT",
  "sourceName": "contracts/PolDOT.sol",
  "abi": [
    {
      "inputs": [
        {
          "internalType": "address",
          "name": "initialOwner",
          "type": "address"
        }
      ],
      "stateMutability": "nonpayable",
      "type": "constructor"
    },
    {
      "inputs": [
        {
          "internalType": "address",
          "name": "spender",
          "type": "address"
        },
        {
          "internalType": "uint256",
          "name": "allowance",
          "type": "uint256"
        },
        {
          "internalType": "uint256",
          "name": "needed",
          "type": "uint256"
        }
      ],
      "name": "ERC20InsufficientAllowance",
      "type": "error"
    },
    {
      "inputs": [
        {
          "internalType": "address",
          "name": "sender",
          "type": "address"
        },
        {
          "internalType": "uint256",
          "name": "balance",
          "type": "uint256"
        },
        {
          "internalType": "uint256",
          "name": "needed",
          "type": "uint256"
        }
      ],
      "name": "ERC20InsufficientBalance",
      "type": "error"
    },
    {
      "inputs": [
        {
          "internalType": "address",
          "name": "approver",
          "type": "address"
        }
      ],
      "name": "ERC20InvalidApprover",
      "type": "error"
    },
    {
      "inputs": [
        {
          "internalType": "address",
          "name": "receiver",
          "type": "address"
        }
      ],
      "name": "ERC20InvalidReceiver",
      "type": "error"
    },
    {
      "inputs": [
        {
          "internalType": "address",
          "name": "sender",
          "type": "address"
        }
      ],
      "name": "ERC20InvalidSender",
      "type": "error"
    },
    {
      "inputs": [
        {
          "internalType": "address",
          "name": "spender",
          "type": "address"
        }
      ],
      "name": "ERC20InvalidSpender",
      "type": "error"
    },
    {
      "inputs": [
        {
          "internalType": "address",
          "name": "owner",
          "type": "address"
        }
      ],
      "name": "OwnableInvalidOwner",
      "type": "error"
    },
    {
      "inputs": [
        {
          "internalType": "address",
          "name": "account",
          "type": "address"
        }
      ],
      "name": "OwnableUnauthorizedAccount",
      "type": "error"
    },
    {
      "anonymous": false,
      "inputs": [
        {
          "indexed": true,
          "internalType": "address",
          "name": "owner",
          "type": "address"
        },
        {
          "indexed": true,
          "internalType": "address",
          "name": "spender",
          "type": "address"
        },
        {
          "indexed": false,
          "internalType": "uint256",
          "name": "value",
          "type": "uint256"
        }
      ],
      "name": "Approval",
      "type": "event"
    },
    {
      "anonymous": false,
      "inputs": [
        {
          "indexed": true,
          "internalType": "address",
          "name": "recipient",
          "type": "address"
        },
        {
          "indexed": false,
          "internalType": "uint256",
          "name": "amount",
          "type": "uint256"
        }
      ],
      "name": "FaucetClaimed",
      "type": "event"
    },
    {
      "anonymous": false,
      "inputs": [
        {
          "indexed": true,
          "internalType": "address",
          "name": "previousOwner",
          "type": "address"
        },
        {
          "indexed": true,
          "internalType": "address",
          "name": "newOwner",
          "type": "address"
        }
      ],
      "name": "OwnershipTransferred",
      "type": "event"
    },
    {
      "anonymous": false,
      "inputs": [
        {
          "indexed": true,
          "internalType": "address",
          "name": "from",
          "type": "address"
        },
        {
          "indexed": true,
          "internalType": "address",
          "name": "to",
          "type": "address"
        },
        {
          "indexed": false,
          "internalType": "uint256",
          "name": "value",
          "type": "uint256"
        }
      ],
      "name": "Transfer",
      "type": "event"
    },
    {
      "inputs": [],
      "name": "FAUCET_AMOUNT",
      "outputs": [
        {
          "internalType": "uint256",
          "name": "",
          "type": "uint256"
        }
      ],
      "stateMutability": "view",
      "type": "function"
    },
    {
      "inputs": [],
      "name": "FAUCET_COOLDOWN",
      "outputs": [
        {
          "internalType": "uint256",
          "name": "",
          "type": "uint256"
        }
      ],
      "stateMutability": "view",
      "type": "function"
    },
    {
      "inputs": [
        {
          "internalType": "address",
          "name": "owner",
          "type": "address"
        },
        {
          "internalType": "address",
          "name": "spender",
          "type": "address"
        }
      ],
      "name": "allowance",
      "outputs": [
        {
          "internalType": "uint256",
          "name": "",
          "type": "uint256"
        }
      ],
      "stateMutability": "view",
      "type": "function"
    },
    {
      "inputs": [
        {
          "internalType": "address",
          "name": "spender",
          "type": "address"
        },
        {
          "internalType": "uint256",
          "name": "value",
          "type": "uint256"
        }
      ],
      "name": "approve",
      "outputs": [
        {
          "internalType": "bool",
          "name": "",
          "type": "bool"
        }
      ],
      "stateMutability": "nonpayable",
      "type": "function"
    },
    {
      "inputs": [
        {
          "internalType": "address",
          "name": "account",
          "type": "address"
        }
      ],
      "name": "balanceOf",
      "outputs": [
        {
          "internalType": "uint256",
          "name": "",
          "type": "uint256"
        }
      ],
      "stateMutability": "view",
      "type": "function"
    },
    {
      "inputs": [],
      "name": "decimals",
      "outputs": [
        {
          "internalType": "uint8",
          "name": "",
          "type": "uint8"
        }
      ],
      "stateMutability": "pure",
      "type": "function"
    },
    {
      "inputs": [],
      "name": "faucet",
      "outputs": [],
      "stateMutability": "nonpayable",
      "type": "function"
    },
    {
      "inputs": [
        {
          "internalType": "address",
          "name": "user",
          "type": "address"
        }
      ],
      "name": "faucetCooldownRemaining",
      "outputs": [
        {
          "internalType": "uint256",
          "name": "",
          "type": "uint256"
        }
      ],
      "stateMutability": "view",
      "type": "function"
    },
    {
      "inputs": [
        {
          "internalType": "address",
          "name": "to",
          "type": "address"
        },
        {
          "internalType": "uint256",
          "name": "amount",
          "type": "uint256"
        }
      ],
      "name": "mint",
      "outputs": [],
      "stateMutability": "nonpayable",
      "type": "function"
    },
    {
      "inputs": [],
      "name": "name",
      "outputs": [
        {
          "internalType": "string",
          "name": "",
          "type": "string"
        }
      ],
      "stateMutability": "view",
      "type": "function"
    },
    {
      "inputs": [],
      "name": "owner",
      "outputs": [
        {
          "internalType": "address",
          "name": "",
          "type": "address"
        }
      ],
      "stateMutability": "view",
      "type": "function"
    },
    {
      "inputs": [],
      "name": "renounceOwnership",
      "outputs": [],
      "stateMutability": "nonpayable",
      "type": "function"
    },
    {
      "inputs": [],
      "name": "symbol",
      "outputs": [
        {
          "internalType": "string",
          "name": "",
          "type": "string"
        }
      ],
      "stateMutability": "view",
      "type": "function"
    },
    {
      "inputs": [],
      "name": "totalSupply",
      "outputs": [
        {
          "internalType": "uint256",
          "name": "",
          "type": "uint256"
        }
      ],
      "stateMutability": "view",
      "type": "function"
    },
    {
      "inputs": [
        {
          "internalType": "address",
          "name": "to",
          "type": "address"
        },
        {
          "internalType": "uint256",
          "name": "value",
          "type": "uint256"
        }
      ],
      "name": "transfer",
      "outputs": [
        {
          "internalType": "bool",
          "name": "",
          "type": "bool"
        }
      ],
      "stateMutability": "nonpayable",
      "type": "function"
    },
    {
      "inputs": [
        {
          "internalType": "address",
          "name": "from",
          "type": "address"
        },
        {
          "internalType": "address",
          "name": "to",
          "type": "address"
        },
        {
          "internalType": "uint256",
          "name": "value",
          "type": "uint256"
        }
      ],
      "name": "transferFrom",
      "outputs": [
        {
          "internalType": "bool",
          "name": "",
          "type": "bool"
        }
      ],
      "stateMutability": "nonpayable",
      "type": "function"
    },
    {
      "inputs": [
        {
          "internalType": "address",
          "name": "newOwner",
          "type": "address"
        }
      ],
      "name": "transferOwnership",
      "outputs": [],
      "stateMutability": "nonpayable",
      "type": "function"
    }
  ],
  "bytecode": "0x608060405234801562000010575f80fd5b5060405162000eae38038062000eae8339810160408190526200003391620002ab565b806040518060400160405280600e81526020016d2837b635b0b237ba102a37b5b2b760911b815250604051806040016040528060038152602001621113d560ea1b815250816003908162000088919062000378565b50600462000097828262000378565b5050506001600160a01b038116620000c957604051631e4fbdf760e01b81525f60048201526024015b60405180910390fd5b620000d481620000ef565b50620000e881662386f26fc1000062000140565b506200046a565b600580546001600160a01b038381166001600160a01b0319831681179093556040519116919082907f8be0079c531659141344cd1fd0a4f28419497f9722a3daafe3b4186f6b6457e0905f90a35050565b6001600160a01b0382166200016b5760405163ec442f0560e01b81525f6004820152602401620000c0565b620001785f83836200017c565b5050565b6001600160a01b038316620001aa578060025f8282546200019e919062000444565b909155506200021c9050565b6001600160a01b0383165f9081526020819052604090205481811015620001fe5760405163391434e360e21b81526001600160a01b03851660048201526024810182905260448101839052606401620000c0565b6001600160a01b0384165f9081526020819052604090209082900390555b6001600160a01b0382166200023a5760028054829003905562000258565b6001600160a01b0382165f9081526020819052604090208054820190555b816001600160a01b0316836001600160a01b03167fddf252ad1be2c89b69c2b068fc378daa952ba7f163c4a11628f55a4df523b3ef836040516200029e91815260200190565b60405180910390a3505050565b5f60208284031215620002bc575f80fd5b81516001600160a01b0381168114620002d3575f80fd5b9392505050565b634e487b7160e01b5f52604160045260245ffd5b600181811c908216806200030357607f821691505b6020821081036200032257634e487b7160e01b5f52602260045260245ffd5b50919050565b601f8211156200037357805f5260205f20601f840160051c810160208510156200034f5750805b601f840160051c820191505b8181101562000370575f81556001016200035b565b50505b505050565b81516001600160401b03811115620003945762000394620002da565b620003ac81620003a58454620002ee565b8462000328565b602080601f831160018114620003e2575f8415620003ca5750858301515b5f19600386901b1c1916600185901b1785556200043c565b5f85815260208120601f198616915b828110156200041257888601518255948401946001909101908401620003f1565b50858210156200043057878501515f19600388901b60f8161c191681555b505060018460011b0185555b505050505050565b808201808211156200046457634e487b7160e01b5f52601160045260245ffd5b92915050565b610a3680620004785f395ff3fe608060405234801561000f575f80fd5b5060043610610106575f3560e01c8063766976401161009e578063a9059cbb1161006e578063a9059cbb146101fd578063b44bae8e14610210578063dd62ed3e14610223578063de5f72fd1461025b578063f2fde38b14610263575f80fd5b806376697640146101c45780637d1d5d19146101d05780638da5cb5b146101da57806395d89b41146101f5575f80fd5b8063313ce567116100d9578063313ce5671461017057806340c10f191461017f57806370a0823114610194578063715018a6146101bc575f80fd5b806306fdde031461010a578063095ea7b31461012857806318160ddd1461014b57806323b872dd1461015d575b5f80fd5b610112610276565b60405161011f919061087c565b60405180910390f35b61013b6101363660046108e3565b610306565b604051901515815260200161011f565b6002545b60405190815260200161011f565b61013b61016b36600461090b565b61031f565b604051600a815260200161011f565b61019261018d3660046108e3565b610342565b005b61014f6101a2366004610944565b6001600160a01b03165f9081526020819052604090205490565b610192610358565b61014f64e8d4a5100081565b61014f6201518081565b6005546040516001600160a01b03909116815260200161011f565b61011261036b565b61013b61020b3660046108e3565b61037a565b61014f61021e366004610944565b610387565b61014f61023136600461095d565b6001600160a01b039182165f90815260016020908152604080832093909416825291909152205490565b6101926103d1565b610192610271366004610944565b6104aa565b6060600380546102859061098e565b80601f01602080910402602001604051908101604052809291908181526020018280546102b19061098e565b80156102fc5780601f106102d3576101008083540402835291602001916102fc565b820191905f5260205f20905b8154815290600101906020018083116102df57829003601f168201915b5050505050905090565b5f336103138185856104e7565b60019150505b92915050565b5f3361032c8582856104f9565b610337858585610575565b506001949350505050565b61034a6105d2565b61035482826105ff565b5050565b6103606105d2565b6103695f610633565b565b6060600480546102859061098e565b5f33610313818585610575565b6001600160a01b0381165f9081526006602052604081205481906103af9062015180906109da565b90508042106103c057505f92915050565b6103ca42826109ed565b9392505050565b335f908152600660205260409020546103ee9062015180906109da565b42101561044e5760405162461bcd60e51b8152602060048201526024808201527f506f6c444f543a2066617563657420636f6f6c646f776e2061637469766520286044820152633234682960e01b60648201526084015b60405180910390fd5b335f81815260066020526040902042905561046e9064e8d4a510006105ff565b60405164e8d4a51000815233907f5d4f415c63cd8a5874d9d291cdd64cec37e5dc236d90d659c958d109d78074b39060200160405180910390a2565b6104b26105d2565b6001600160a01b0381166104db57604051631e4fbdf760e01b81525f6004820152602401610445565b6104e481610633565b50565b6104f48383836001610684565b505050565b6001600160a01b038381165f908152600160209081526040808320938616835292905220545f1981101561056f578181101561056157604051637dc7a0d960e11b81526001600160a01b03841660048201526024810182905260448101839052606401610445565b61056f84848484035f610684565b50505050565b6001600160a01b03831661059e57604051634b637e8f60e11b81525f6004820152602401610445565b6001600160a01b0382166105c75760405163ec442f0560e01b81525f6004820152602401610445565b6104f4838383610756565b6005546001600160a01b031633146103695760405163118cdaa760e01b8152336004820152602401610445565b6001600160a01b0382166106285760405163ec442f0560e01b81525f6004820152602401610445565b6103545f8383610756565b600580546001600160a01b038381166001600160a01b0319831681179093556040519116919082907f8be0079c531659141344cd1fd0a4f28419497f9722a3daafe3b4186f6b6457e0905f90a35050565b6001600160a01b0384166106ad5760405163e602df0560e01b81525f6004820152602401610445565b6001600160a01b0383166106d657604051634a1406b160e11b81525f6004820152602401610445565b6001600160a01b038085165f908152600160209081526040808320938716835292905220829055801561056f57826001600160a01b0316846001600160a01b03167f8c5be1e5ebec7d5bd14f71427d1e84f3dd0314c0f7b2291e5b200ac8c7c3b9258460405161074891815260200190565b60405180910390a350505050565b6001600160a01b038316610780578060025f82825461077591906109da565b909155506107f09050565b6001600160a01b0383165f90815260208190526040902054818110156107d25760405163391434e360e21b81526001600160a01b03851660048201526024810182905260448101839052606401610445565b6001600160a01b0384165f9081526020819052604090209082900390555b6001600160a01b03821661080c5760028054829003905561082a565b6001600160a01b0382165f9081526020819052604090208054820190555b816001600160a01b0316836001600160a01b03167fddf252ad1be2c89b69c2b068fc378daa952ba7f163c4a11628f55a4df523b3ef8360405161086f91815260200190565b60405180910390a3505050565b5f602080835283518060208501525f5b818110156108a85785810183015185820160400152820161088c565b505f604082860101526040601f19601f8301168501019250505092915050565b80356001600160a01b03811681146108de575f80fd5b919050565b5f80604083850312156108f4575f80fd5b6108fd836108c8565b946020939093013593505050565b5f805f6060848603121561091d575f80fd5b610926846108c8565b9250610934602085016108c8565b9150604084013590509250925092565b5f60208284031215610954575f80fd5b6103ca826108c8565b5f806040838503121561096e575f80fd5b610977836108c8565b9150610985602084016108c8565b90509250929050565b600181811c908216806109a257607f821691505b6020821081036109c057634e487b7160e01b5f52602260045260245ffd5b50919050565b634e487b7160e01b5f52601160045260245ffd5b80820180821115610319576103196109c6565b81810381811115610319576103196109c656fea2646970667358221220c98eeb6d213c6f5744e6378ce15b4485de410452c2c8fc636e1205813d0e97b064736f6c63430008180033",
  "linkReferences": {},
  "deployedLinkReferences": {},
  "immutableReferences": {},
  "inputSourceName": "project/contracts/PolDOT.sol",
  "buildInfoId": "solc-0_8_24-3af7f2905d3671bf2083f102d908953294229991"
}