{
  "_format": "hh3-artifact-1",
  "contractName": "PolUSDC",
  "sourceName": "contracts/PolUSDC.sol",
  "abi": [
    {
      "inputs": [
        {
          "internalType": "address",
          "name": "initialOwner",
          "type": "address"
        }
      ],
      "stateMutability": "nonpayable",
      "type": "constructor"
    },
    {
      "inputs": [
        {
          "internalType": "address",
          "name": "spender",
          "type": "address"
        },
        {
          "internalType": "uint256",
          "name": "allowance",
          "type": "uint256"
        },
        {
          "internalType": "uint256",
          "name": "needed",
          "type": "uint256"
        }
      ],
      "name": "ERC20InsufficientAllowance",
      "type": "error"
    },
    {
      "inputs": [
        {
          "internalType": "address",
          "name": "sender",
          "type": "address"
        },
        {
          "internalType": "uint256",
          "name": "balance",
          "type": "uint256"
        },
        {
          "internalType": "uint256",
          "name": "needed",
          "type": "uint256"
        }
      ],
      "name": "ERC20InsufficientBalance",
      "type": "error"
    },
    {
      "inputs": [
        {
          "internalType": "address",
          "name": "approver",
          "type": "address"
        }
      ],
      "name": "ERC20InvalidApprover",
      "type": "error"
    },
    {
      "inputs": [
        {
          "internalType": "address",
          "name": "receiver",
          "type": "address"
        }
      ],
      "name": "ERC20InvalidReceiver",
      "type": "error"
    },
    {
      "inputs": [
        {
          "internalType": "address",
          "name": "sender",
          "type": "address"
        }
      ],
      "name": "ERC20InvalidSender",
      "type": "error"
    },
    {
      "inputs": [
        {
          "internalType": "address",
          "name": "spender",
          "type": "address"
        }
      ],
      "name": "ERC20InvalidSpender",
      "type": "error"
    },
    {
      "inputs": [
        {
          "internalType": "address",
          "name": "owner",
          "type": "address"
        }
      ],
      "name": "OwnableInvalidOwner",
      "type": "error"
    },
    {
      "inputs": [
        {
          "internalType": "address",
          "name": "account",
          "type": "address"
        }
      ],
      "name": "OwnableUnauthorizedAccount",
      "type": "error"
    },
    {
      "anonymous": false,
      "inputs": [
        {
          "indexed": true,
          "internalType": "address",
          "name": "owner",
          "type": "address"
        },
        {
          "indexed": true,
          "internalType": "address",
          "name": "spender",
          "type": "address"
        },
        {
          "indexed": false,
          "internalType": "uint256",
          "name": "value",
          "type": "uint256"
        }
      ],
      "name": "Approval",
      "type": "event"
    },
    {
      "anonymous": false,
      "inputs": [
        {
          "indexed": true,
          "internalType": "address",
          "name": "recipient",
          "type": "address"
        },
        {
          "indexed": false,
          "internalType": "uint256",
          "name": "amount",
          "type": "uint256"
        }
      ],
      "name": "FaucetClaimed",
      "type": "event"
    },
    {
      "anonymous": false,
      "inputs": [
        {
          "indexed": true,
          "internalType": "address",
          "name": "previousOwner",
          "type": "address"
        },
        {
          "indexed": true,
          "internalType": "address",
          "name": "newOwner",
          "type": "address"
        }
      ],
      "name": "OwnershipTransferred",
      "type": "event"
    },
    {
      "anonymous": false,
      "inputs": [
        {
          "indexed": true,
          "internalType": "address",
          "name": "from",
          "type": "address"
        },
        {
          "indexed": true,
          "internalType": "address",
          "name": "to",
          "type": "address"
        },
        {
          "indexed": false,
          "internalType": "uint256",
          "name": "value",
          "type": "uint256"
        }
      ],
      "name": "Transfer",
      "type": "event"
    },
    {
      "inputs": [],
      "name": "FAUCET_AMOUNT",
      "outputs": [
        {
          "internalType": "uint256",
          "name": "",
          "type": "uint256"
        }
      ],
      "stateMutability": "view",
      "type": "function"
    },
    {
      "inputs": [],
      "name": "FAUCET_COOLDOWN",
      "outputs": [
        {
          "internalType": "uint256",
          "name": "",
          "type": "uint256"
        }
      ],
      "stateMutability": "view",
      "type": "function"
    },
    {
      "inputs": [
        {
          "internalType": "address",
          "name": "owner",
          "type": "address"
        },
        {
          "internalType": "address",
          "name": "spender",
          "type": "address"
        }
      ],
      "name": "allowance",
      "outputs": [
        {
          "internalType": "uint256",
          "name": "",
          "type": "uint256"
        }
      ],
      "stateMutability": "view",
      "type": "function"
    },
    {
      "inputs": [
        {
          "internalType": "address",
          "name": "spender",
          "type": "address"
        },
        {
          "internalType": "uint256",
          "name": "value",
          "type": "uint256"
        }
      ],
      "name": "approve",
      "outputs": [
        {
          "internalType": "bool",
          "name": "",
          "type": "bool"
        }
      ],
      "stateMutability": "nonpayable",
      "type": "function"
    },
    {
      "inputs": [
        {
          "internalType": "address",
          "name": "account",
          "type": "address"
        }
      ],
      "name": "balanceOf",
      "outputs": [
        {
          "internalType": "uint256",
          "name": "",
          "type": "uint256"
        }
      ],
      "stateMutability": "view",
      "type": "function"
    },
    {
      "inputs": [],
      "name": "decimals",
      "outputs": [
        {
          "internalType": "uint8",
          "name": "",
          "type": "uint8"
        }
      ],
      "stateMutability": "pure",
      "type": "function"
    },
    {
      "inputs": [],
      "name": "faucet",
      "outputs": [],
      "stateMutability": "nonpayable",
      "type": "function"
    },
    {
      "inputs": [
        {
          "internalType": "address",
          "name": "user",
          "type": "address"
        }
      ],
      "name": "faucetCooldownRemaining",
      "outputs": [
        {
          "internalType": "uint256",
          "name": "",
          "type": "uint256"
        }
      ],
      "stateMutability": "view",
      "type": "function"
    },
    {
      "inputs": [
        {
          "internalType": "address",
          "name": "to",
          "type": "address"
        },
        {
          "internalType": "uint256",
          "name": "amount",
          "type": "uint256"
        }
      ],
      "name": "mint",
      "outputs": [],
      "stateMutability": "nonpayable",
      "type": "function"
    },
    {
      "inputs": [],
      "name": "name",
      "outputs": [
        {
          "internalType": "string",
          "name": "",
          "type": "string"
        }
      ],
      "stateMutability": "view",
      "type": "function"
    },
    {
      "inputs": [],
      "name": "owner",
      "outputs": [
        {
          "internalType": "address",
          "name": "",
          "type": "address"
        }
      ],
      "stateMutability": "view",
      "type": "function"
    },
    {
      "inputs": [],
      "name": "renounceOwnership",
      "outputs": [],
      "stateMutability": "nonpayable",
      "type": "function"
    },
    {
      "inputs": [],
      "name": "symbol",
      "outputs": [
        {
          "internalType": "string",
          "name": "",
          "type": "string"
        }
      ],
      "stateMutability": "view",
      "type": "function"
    },
    {
      "inputs": [],
      "name": "totalSupply",
      "outputs": [
        {
          "internalType": "uint256",
          "name": "",
          "type": "uint256"
        }
      ],
      "stateMutability": "view",
      "type": "function"
    },
    {
      "inputs": [
        {
          "internalType": "address",
          "name": "to",
          "type": "address"
        },
        {
          "internalType": "uint256",
          "name": "value",
          "type": "uint256"
        }
      ],
      "name": "transfer",
      "outputs": [
        {
          "internalType": "bool",
          "name": "",
          "type": "bool"
        }
      ],
      "stateMutability": "nonpayable",
      "type": "function"
    },
    {
      "inputs": [
        {
          "internalType": "address",
          "name": "from",
          "type": "address"
        },
        {
          "internalType": "address",
          "name": "to",
          "type": "address"
        },
        {
          "internalType": "uint256",
          "name": "value",
          "type": "uint256"
        }
      ],
      "name": "transferFrom",
      "outputs": [
        {
          "internalType": "bool",
          "name": "",
          "type": "bool"
        }
      ],
      "stateMutability": "nonpayable",
      "type": "function"
    },
    {
      "inputs": [
        {
          "internalType": "address",
          "name": "newOwner",
          "type": "address"
        }
      ],
      "name": "transferOwnership",
      "outputs": [],
      "stateMutability": "nonpayable",
      "type": "function"
    }
  ],
  "bytecode": "0x608060405234801562000010575f80fd5b5060405162000eb038038062000eb08339810160408190526200003391620002ae565b80604051806040016040528060118152602001702837b635b0b237ba102aa9a21021b7b4b760791b815250604051806040016040528060048152602001635553444360e01b81525081600390816200008c91906200037b565b5060046200009b82826200037b565b5050506001600160a01b038116620000cd57604051631e4fbdf760e01b81525f60048201526024015b60405180910390fd5b620000d881620000f2565b50620000eb816509184e72a00062000143565b506200046d565b600580546001600160a01b038381166001600160a01b0319831681179093556040519116919082907f8be0079c531659141344cd1fd0a4f28419497f9722a3daafe3b4186f6b6457e0905f90a35050565b6001600160a01b0382166200016e5760405163ec442f0560e01b81525f6004820152602401620000c4565b6200017b5f83836200017f565b5050565b6001600160a01b038316620001ad578060025f828254620001a1919062000447565b909155506200021f9050565b6001600160a01b0383165f9081526020819052604090205481811015620002015760405163391434e360e21b81526001600160a01b03851660048201526024810182905260448101839052606401620000c4565b6001600160a01b0384165f9081526020819052604090209082900390555b6001600160a01b0382166200023d576002805482900390556200025b565b6001600160a01b0382165f9081526020819052604090208054820190555b816001600160a01b0316836001600160a01b03167fddf252ad1be2c89b69c2b068fc378daa952ba7f163c4a11628f55a4df523b3ef83604051620002a191815260200190565b60405180910390a3505050565b5f60208284031215620002bf575f80fd5b81516001600160a01b0381168114620002d6575f80fd5b9392505050565b634e487b7160e01b5f52604160045260245ffd5b600181811c908216806200030657607f821691505b6020821081036200032557634e487b7160e01b5f52602260045260245ffd5b50919050565b601f8211156200037657805f5260205f20601f840160051c81016020851015620003525750805b601f840160051c820191505b8181101562000373575f81556001016200035e565b50505b505050565b81516001600160401b03811115620003975762000397620002dd565b620003af81620003a88454620002f1565b846200032b565b602080601f831160018114620003e5575f8415620003cd5750858301515b5f19600386901b1c1916600185901b1785556200043f565b5f85815260208120601f198616915b828110156200041557888601518255948401946001909101908401620003f4565b50858210156200043357878501515f19600388901b60f8161c191681555b505060018460011b0185555b505050505050565b808201808211156200046757634e487b7160e01b5f52601160045260245ffd5b92915050565b610a35806200047b5f395ff3fe608060405234801561000f575f80fd5b5060043610610106575f3560e01c8063766976401161009e578063a9059cbb1161006e578063a9059cbb146101fc578063b44bae8e1461020f578063dd62ed3e14610222578063de5f72fd1461025a578063f2fde38b14610262575f80fd5b806376697640146101c45780637d1d5d19146101cf5780638da5cb5b146101d957806395d89b41146101f4575f80fd5b8063313ce567116100d9578063313ce5671461017057806340c10f191461017f57806370a0823114610194578063715018a6146101bc575f80fd5b806306fdde031461010a578063095ea7b31461012857806318160ddd1461014b57806323b872dd1461015d575b5f80fd5b610112610275565b60405161011f919061087b565b60405180910390f35b61013b6101363660046108e2565b610305565b604051901515815260200161011f565b6002545b60405190815260200161011f565b61013b61016b36600461090a565b61031e565b6040516006815260200161011f565b61019261018d3660046108e2565b610341565b005b61014f6101a2366004610943565b6001600160a01b03165f9081526020819052604090205490565b610192610357565b61014f633b9aca0081565b61014f6201518081565b6005546040516001600160a01b03909116815260200161011f565b61011261036a565b61013b61020a3660046108e2565b610379565b61014f61021d366004610943565b610386565b61014f61023036600461095c565b6001600160a01b039182165f90815260016020908152604080832093909416825291909152205490565b6101926103d0565b610192610270366004610943565b6104a9565b6060600380546102849061098d565b80601f01602080910402602001604051908101604052809291908181526020018280546102b09061098d565b80156102fb5780601f106102d2576101008083540402835291602001916102fb565b820191905f5260205f20905b8154815290600101906020018083116102de57829003601f168201915b5050505050905090565b5f336103128185856104e6565b60019150505b92915050565b5f3361032b8582856104f8565b610336858585610574565b506001949350505050565b6103496105d1565b61035382826105fe565b5050565b61035f6105d1565b6103685f610632565b565b6060600480546102849061098d565b5f33610312818585610574565b6001600160a01b0381165f9081526006602052604081205481906103ae9062015180906109d9565b90508042106103bf57505f92915050565b6103c942826109ec565b9392505050565b335f908152600660205260409020546103ed9062015180906109d9565b42101561044f5760405162461bcd60e51b815260206004820152602560248201527f506f6c555344433a2066617563657420636f6f6c646f776e2061637469766520604482015264283234682960d81b60648201526084015b60405180910390fd5b335f81815260066020526040902042905561046e90633b9aca006105fe565b604051633b9aca00815233907f5d4f415c63cd8a5874d9d291cdd64cec37e5dc236d90d659c958d109d78074b39060200160405180910390a2565b6104b16105d1565b6001600160a01b0381166104da57604051631e4fbdf760e01b81525f6004820152602401610446565b6104e381610632565b50565b6104f38383836001610683565b505050565b6001600160a01b038381165f908152600160209081526040808320938616835292905220545f1981101561056e578181101561056057604051637dc7a0d960e11b81526001600160a01b03841660048201526024810182905260448101839052606401610446565b61056e84848484035f610683565b50505050565b6001600160a01b03831661059d57604051634b637e8f60e11b81525f6004820152602401610446565b6001600160a01b0382166105c65760405163ec442f0560e01b81525f6004820152602401610446565b6104f3838383610755565b6005546001600160a01b031633146103685760405163118cdaa760e01b8152336004820152602401610446565b6001600160a01b0382166106275760405163ec442f0560e01b81525f6004820152602401610446565b6103535f8383610755565b600580546001600160a01b038381166001600160a01b0319831681179093556040519116919082907f8be0079c531659141344cd1fd0a4f28419497f9722a3daafe3b4186f6b6457e0905f90a35050565b6001600160a01b0384166106ac5760405163e602df0560e01b81525f6004820152602401610446565b6001600160a01b0383166106d557604051634a1406b160e11b81525f6004820152602401610446565b6001600160a01b038085165f908152600160209081526040808320938716835292905220829055801561056e57826001600160a01b0316846001600160a01b03167f8c5be1e5ebec7d5bd14f71427d1e84f3dd0314c0f7b2291e5b200ac8c7c3b9258460405161074791815260200190565b60405180910390a350505050565b6001600160a01b03831661077f578060025f82825461077491906109d9565b909155506107ef9050565b6001600160a01b0383165f90815260208190526040902054818110156107d15760405163391434e360e21b81526001600160a01b03851660048201526024810182905260448101839052606401610446565b6001600160a01b0384165f9081526020819052604090209082900390555b6001600160a01b03821661080b57600280548290039055610829565b6001600160a01b0382165f9081526020819052604090208054820190555b816001600160a01b0316836001600160a01b03167fddf252ad1be2c89b69c2b068fc378daa952ba7f163c4a11628f55a4df523b3ef8360405161086e91815260200190565b60405180910390a3505050565b5f602080835283518060208501525f5b818110156108a75785810183015185820160400152820161088b565b505f604082860101526040601f19601f8301168501019250505092915050565b80356001600160a01b03811681146108dd575f80fd5b919050565b5f80604083850312156108f3575f80fd5b6108fc836108c7565b946020939093013593505050565b5f805f6060848603121561091c575f80fd5b610925846108c7565b9250610933602085016108c7565b9150604084013590509250925092565b5f60208284031215610953575f80fd5b6103c9826108c7565b5f806040838503121561096d575f80fd5b610976836108c7565b9150610984602084016108c7565b90509250929050565b600181811c908216806109a157607f821691505b6020821081036109bf57634e487b7160e01b5f52602260045260245ffd5b50919050565b634e487b7160e01b5f52601160045260245ffd5b80820180821115610318576103186109c5565b81810381811115610318576103186109c556fea26469706673582212200e3af97d62d047ac81c1ca1fc2b0d23b400ed6490d274d3bf8dea609ce18fb1064736f6c63430008180033",
  "linkReferences": {},
  "deployedLinkReferences": {},
  "immutableReferences": {},
  "inputSourceName": "project/contracts/PolUSDC.sol",
  "buildInfoId": "solc-0_8_24-3af7f2905d3671bf2083f102d908953294229991"
}