{
  "_format": "hh3-artifact-1",
  "contractName": "RotaFiCircle",
  "sourceName": "contracts/RotaFiCircle.sol",
  "abi": [
    {
      "inputs": [
        {
          "internalType": "string",
          "name": "_name",
          "type": "string"
        },
        {
          "internalType": "uint32",
          "name": "_memberCap",
          "type": "uint32"
        },
        {
          "internalType": "uint256",
          "name": "_depositAmount",
          "type": "uint256"
        },
        {
          "internalType": "uint64",
          "name": "_cycleSeconds",
          "type": "uint64"
        },
        {
          "internalType": "address",
          "name": "_usdcAddress",
          "type": "address"
        },
        {
          "internalType": "address",
          "name": "_admin",
          "type": "address"
        }
      ],
      "stateMutability": "nonpayable",
      "type": "constructor"
    },
    {
      "inputs": [],
      "name": "AccessControlBadConfirmation",
      "type": "error"
    },
    {
      "inputs": [
        {
          "internalType": "address",
          "name": "account",
          "type": "address"
        },
        {
          "internalType": "bytes32",
          "name": "neededRole",
          "type": "bytes32"
        }
      ],
      "name": "AccessControlUnauthorizedAccount",
      "type": "error"
    },
    {
      "inputs": [],
      "name": "AlreadyDeposited",
      "type": "error"
    },
    {
      "inputs": [],
      "name": "AlreadyMember",
      "type": "error"
    },
    {
      "inputs": [],
      "name": "CircleComplete",
      "type": "error"
    },
    {
      "inputs": [],
      "name": "CircleFull",
      "type": "error"
    },
    {
      "inputs": [],
      "name": "CircleNotStarted",
      "type": "error"
    },
    {
      "inputs": [],
      "name": "EnforcedPause",
      "type": "error"
    },
    {
      "inputs": [],
      "name": "ExpectedPause",
      "type": "error"
    },
    {
      "inputs": [
        {
          "internalType": "string",
          "name": "reason",
          "type": "string"
        }
      ],
      "name": "InvalidParams",
      "type": "error"
    },
    {
      "inputs": [],
      "name": "NotMember",
      "type": "error"
    },
    {
      "inputs": [],
      "name": "ReentrancyGuardReentrantCall",
      "type": "error"
    },
    {
      "inputs": [],
      "name": "RoundNotComplete",
      "type": "error"
    },
    {
      "inputs": [
        {
          "internalType": "address",
          "name": "token",
          "type": "address"
        }
      ],
      "name": "SafeERC20FailedOperation",
      "type": "error"
    },
    {
      "anonymous": false,
      "inputs": [
        {
          "indexed": true,
          "internalType": "address",
          "name": "member",
          "type": "address"
        },
        {
          "indexed": false,
          "internalType": "uint32",
          "name": "round",
          "type": "uint32"
        }
      ],
      "name": "DepositMade",
      "type": "event"
    },
    {
      "anonymous": false,
      "inputs": [
        {
          "indexed": true,
          "internalType": "address",
          "name": "member",
          "type": "address"
        },
        {
          "indexed": false,
          "internalType": "uint32",
          "name": "newMemberCount",
          "type": "uint32"
        }
      ],
      "name": "MemberJoined",
      "type": "event"
    },
    {
      "anonymous": false,
      "inputs": [
        {
          "indexed": true,
          "internalType": "address",
          "name": "member",
          "type": "address"
        },
        {
          "indexed": false,
          "internalType": "uint32",
          "name": "round",
          "type": "uint32"
        }
      ],
      "name": "MemberPenalized",
      "type": "event"
    },
    {
      "anonymous": false,
      "inputs": [
        {
          "indexed": false,
          "internalType": "address",
          "name": "account",
          "type": "address"
        }
      ],
      "name": "Paused",
      "type": "event"
    },
    {
      "anonymous": false,
      "inputs": [
        {
          "indexed": true,
          "internalType": "address",
          "name": "recipient",
          "type": "address"
        },
        {
          "indexed": false,
          "internalType": "uint256",
          "name": "amount",
          "type": "uint256"
        },
        {
          "indexed": false,
          "internalType": "uint32",
          "name": "round",
          "type": "uint32"
        }
      ],
      "name": "PotPaidOut",
      "type": "event"
    },
    {
      "anonymous": false,
      "inputs": [
        {
          "indexed": true,
          "internalType": "bytes32",
          "name": "role",
          "type": "bytes32"
        },
        {
          "indexed": true,
          "internalType": "bytes32",
          "name": "previousAdminRole",
          "type": "bytes32"
        },
        {
          "indexed": true,
          "internalType": "bytes32",
          "name": "newAdminRole",
          "type": "bytes32"
        }
      ],
      "name": "RoleAdminChanged",
      "type": "event"
    },
    {
      "anonymous": false,
      "inputs": [
        {
          "indexed": true,
          "internalType": "bytes32",
          "name": "role",
          "type": "bytes32"
        },
        {
          "indexed": true,
          "internalType": "address",
          "name": "account",
          "type": "address"
        },
        {
          "indexed": true,
          "internalType": "address",
          "name": "sender",
          "type": "address"
        }
      ],
      "name": "RoleGranted",
      "type": "event"
    },
    {
      "anonymous": false,
      "inputs": [
        {
          "indexed": true,
          "internalType": "bytes32",
          "name": "role",
          "type": "bytes32"
        },
        {
          "indexed": true,
          "internalType": "address",
          "name": "account",
          "type": "address"
        },
        {
          "indexed": true,
          "internalType": "address",
          "name": "sender",
          "type": "address"
        }
      ],
      "name": "RoleRevoked",
      "type": "event"
    },
    {
      "anonymous": false,
      "inputs": [
        {
          "indexed": true,
          "internalType": "uint32",
          "name": "round",
          "type": "uint32"
        },
        {
          "indexed": true,
          "internalType": "address",
          "name": "recipient",
          "type": "address"
        },
        {
          "indexed": false,
          "internalType": "uint64",
          "name": "deadline",
          "type": "uint64"
        }
      ],
      "name": "RoundStarted",
      "type": "event"
    },
    {
      "anonymous": false,
      "inputs": [
        {
          "indexed": false,
          "internalType": "address",
          "name": "account",
          "type": "address"
        }
      ],
      "name": "Unpaused",
      "type": "event"
    },
    {
      "inputs": [],
      "name": "CIRCLE_ADMIN_ROLE",
      "outputs": [
        {
          "internalType": "bytes32",
          "name": "",
          "type": "bytes32"
        }
      ],
      "stateMutability": "view",
      "type": "function"
    },
    {
      "inputs": [],
      "name": "DEFAULT_ADMIN_ROLE",
      "outputs": [
        {
          "internalType": "bytes32",
          "name": "",
          "type": "bytes32"
        }
      ],
      "stateMutability": "view",
      "type": "function"
    },
    {
      "inputs": [],
      "name": "admin",
      "outputs": [
        {
          "internalType": "address",
          "name": "",
          "type": "address"
        }
      ],
      "stateMutability": "view",
      "type": "function"
    },
    {
      "inputs": [],
      "name": "currentRound",
      "outputs": [
        {
          "internalType": "uint32",
          "name": "",
          "type": "uint32"
        }
      ],
      "stateMutability": "view",
      "type": "function"
    },
    {
      "inputs": [],
      "name": "cycleSeconds",
      "outputs": [
        {
          "internalType": "uint64",
          "name": "",
          "type": "uint64"
        }
      ],
      "stateMutability": "view",
      "type": "function"
    },
    {
      "inputs": [],
      "name": "deposit",
      "outputs": [],
      "stateMutability": "nonpayable",
      "type": "function"
    },
    {
      "inputs": [],
      "name": "depositAmount",
      "outputs": [
        {
          "internalType": "uint256",
          "name": "",
          "type": "uint256"
        }
      ],
      "stateMutability": "view",
      "type": "function"
    },
    {
      "inputs": [],
      "name": "flagLateMembers",
      "outputs": [],
      "stateMutability": "nonpayable",
      "type": "function"
    },
    {
      "inputs": [],
      "name": "getCurrentRound",
      "outputs": [
        {
          "components": [
            {
              "internalType": "uint32",
              "name": "roundIndex",
              "type": "uint32"
            },
            {
              "internalType": "address",
              "name": "recipient",
              "type": "address"
            },
            {
              "internalType": "uint32",
              "name": "depositsIn",
              "type": "uint32"
            },
            {
              "internalType": "uint32",
              "name": "depositsNeeded",
              "type": "uint32"
            },
            {
              "internalType": "uint64",
              "name": "deadline",
              "type": "uint64"
            }
          ],
          "internalType": "struct RotaFiCircle.RoundView",
          "name": "",
          "type": "tuple"
        }
      ],
      "stateMutability": "view",
      "type": "function"
    },
    {
      "inputs": [],
      "name": "getInfo",
      "outputs": [
        {
          "components": [
            {
              "internalType": "string",
              "name": "name",
              "type": "string"
            },
            {
              "internalType": "string",
              "name": "tokenSymbol",
              "type": "string"
            },
            {
              "internalType": "address",
              "name": "admin",
              "type": "address"
            },
            {
              "internalType": "uint32",
              "name": "memberCap",
              "type": "uint32"
            },
            {
              "internalType": "uint32",
              "name": "memberCount",
              "type": "uint32"
            },
            {
              "internalType": "uint256",
              "name": "depositAmount",
              "type": "uint256"
            },
            {
              "internalType": "uint64",
              "name": "cycleSeconds",
              "type": "uint64"
            },
            {
              "internalType": "uint32",
              "name": "currentRound",
              "type": "uint32"
            },
            {
              "internalType": "uint32",
              "name": "totalRounds",
              "type": "uint32"
            },
            {
              "internalType": "bool",
              "name": "isActive",
              "type": "bool"
            },
            {
              "internalType": "address",
              "name": "tokenAddress",
              "type": "address"
            },
            {
              "internalType": "uint8",
              "name": "tokenDecimals",
              "type": "uint8"
            },
            {
              "internalType": "uint64",
              "name": "roundStartedAt",
              "type": "uint64"
            }
          ],
          "internalType": "struct RotaFiCircle.CircleInfo",
          "name": "",
          "type": "tuple"
        }
      ],
      "stateMutability": "view",
      "type": "function"
    },
    {
      "inputs": [
        {
          "internalType": "address",
          "name": "member",
          "type": "address"
        }
      ],
      "name": "getMemberPosition",
      "outputs": [
        {
          "internalType": "uint32",
          "name": "",
          "type": "uint32"
        }
      ],
      "stateMutability": "view",
      "type": "function"
    },
    {
      "inputs": [],
      "name": "getMembers",
      "outputs": [
        {
          "internalType": "address[]",
          "name": "",
          "type": "address[]"
        }
      ],
      "stateMutability": "view",
      "type": "function"
    },
    {
      "inputs": [],
      "name": "getPayoutHistory",
      "outputs": [
        {
          "components": [
            {
              "internalType": "uint32",
              "name": "round",
              "type": "uint32"
            },
            {
              "internalType": "address",
              "name": "recipient",
              "type": "address"
            },
            {
              "internalType": "uint256",
              "name": "amount",
              "type": "uint256"
            },
            {
              "internalType": "uint64",
              "name": "timestamp",
              "type": "uint64"
            }
          ],
          "internalType": "struct RotaFiCircle.PayoutRecord[]",
          "name": "",
          "type": "tuple[]"
        }
      ],
      "stateMutability": "view",
      "type": "function"
    },
    {
      "inputs": [
        {
          "internalType": "bytes32",
          "name": "role",
          "type": "bytes32"
        }
      ],
      "name": "getRoleAdmin",
      "outputs": [
        {
          "internalType": "bytes32",
          "name": "",
          "type": "bytes32"
        }
      ],
      "stateMutability": "view",
      "type": "function"
    },
    {
      "inputs": [
        {
          "internalType": "bytes32",
          "name": "role",
          "type": "bytes32"
        },
        {
          "internalType": "address",
          "name": "account",
          "type": "address"
        }
      ],
      "name": "grantRole",
      "outputs": [],
      "stateMutability": "nonpayable",
      "type": "function"
    },
    {
      "inputs": [
        {
          "internalType": "address",
          "name": "member",
          "type": "address"
        }
      ],
      "name": "hasDeposited",
      "outputs": [
        {
          "internalType": "bool",
          "name": "",
          "type": "bool"
        }
      ],
      "stateMutability": "view",
      "type": "function"
    },
    {
      "inputs": [
        {
          "internalType": "bytes32",
          "name": "role",
          "type": "bytes32"
        },
        {
          "internalType": "address",
          "name": "account",
          "type": "address"
        }
      ],
      "name": "hasRole",
      "outputs": [
        {
          "internalType": "bool",
          "name": "",
          "type": "bool"
        }
      ],
      "stateMutability": "view",
      "type": "function"
    },
    {
      "inputs": [],
      "name": "isActive",
      "outputs": [
        {
          "internalType": "bool",
          "name": "",
          "type": "bool"
        }
      ],
      "stateMutability": "view",
      "type": "function"
    },
    {
      "inputs": [
        {
          "internalType": "address",
          "name": "member",
          "type": "address"
        }
      ],
      "name": "isPenalized",
      "outputs": [
        {
          "internalType": "bool",
          "name": "",
          "type": "bool"
        }
      ],
      "stateMutability": "view",
      "type": "function"
    },
    {
      "inputs": [],
      "name": "joinCircle",
      "outputs": [],
      "stateMutability": "nonpayable",
      "type": "function"
    },
    {
      "inputs": [],
      "name": "memberCap",
      "outputs": [
        {
          "internalType": "uint32",
          "name": "",
          "type": "uint32"
        }
      ],
      "stateMutability": "view",
      "type": "function"
    },
    {
      "inputs": [],
      "name": "memberCount",
      "outputs": [
        {
          "internalType": "uint32",
          "name": "",
          "type": "uint32"
        }
      ],
      "stateMutability": "view",
      "type": "function"
    },
    {
      "inputs": [],
      "name": "name",
      "outputs": [
        {
          "internalType": "string",
          "name": "",
          "type": "string"
        }
      ],
      "stateMutability": "view",
      "type": "function"
    },
    {
      "inputs": [],
      "name": "pause",
      "outputs": [],
      "stateMutability": "nonpayable",
      "type": "function"
    },
    {
      "inputs": [],
      "name": "paused",
      "outputs": [
        {
          "internalType": "bool",
          "name": "",
          "type": "bool"
        }
      ],
      "stateMutability": "view",
      "type": "function"
    },
    {
      "inputs": [
        {
          "internalType": "bytes32",
          "name": "role",
          "type": "bytes32"
        },
        {
          "internalType": "address",
          "name": "callerConfirmation",
          "type": "address"
        }
      ],
      "name": "renounceRole",
      "outputs": [],
      "stateMutability": "nonpayable",
      "type": "function"
    },
    {
      "inputs": [
        {
          "internalType": "bytes32",
          "name": "role",
          "type": "bytes32"
        },
        {
          "internalType": "address",
          "name": "account",
          "type": "address"
        }
      ],
      "name": "revokeRole",
      "outputs": [],
      "stateMutability": "nonpayable",
      "type": "function"
    },
    {
      "inputs": [],
      "name": "roundStartedAt",
      "outputs": [
        {
          "internalType": "uint64",
          "name": "",
          "type": "uint64"
        }
      ],
      "stateMutability": "view",
      "type": "function"
    },
    {
      "inputs": [
        {
          "internalType": "bytes4",
          "name": "interfaceId",
          "type": "bytes4"
        }
      ],
      "name": "supportsInterface",
      "outputs": [
        {
          "internalType": "bool",
          "name": "",
          "type": "bool"
        }
      ],
      "stateMutability": "view",
      "type": "function"
    },
    {
      "inputs": [],
      "name": "tokenAddress",
      "outputs": [
        {
          "internalType": "address",
          "name": "",
          "type": "address"
        }
      ],
      "stateMutability": "view",
      "type": "function"
    },
    {
      "inputs": [],
      "name": "tokenDecimals",
      "outputs": [
        {
          "internalType": "uint8",
          "name": "",
          "type": "uint8"
        }
      ],
      "stateMutability": "view",
      "type": "function"
    },
    {
      "inputs": [],
      "name": "tokenSymbol",
      "outputs": [
        {
          "internalType": "string",
          "name": "",
          "type": "string"
        }
      ],
      "stateMutability": "view",
      "type": "function"
    },
    {
      "inputs": [],
      "name": "totalRounds",
      "outputs": [
        {
          "internalType": "uint32",
          "name": "",
          "type": "uint32"
        }
      ],
      "stateMutability": "view",
      "type": "function"
    },
    {
      "inputs": [],
      "name": "triggerPayout",
      "outputs": [],
      "stateMutability": "nonpayable",
      "type": "function"
    },
    {
      "inputs": [],
      "name": "unpause",
      "outputs": [],
      "stateMutability": "nonpayable",
      "type": "function"
    }
  ],
  "bytecode": "0x608060405234801562000010575f80fd5b50604051620026e4380380620026e48339810160408190526200003391620005b9565b60017f9b779b17422d0df92223018b32b4d1fa46e071723d6817e2486d003becc55f0055600363ffffffff8616108062000073575060148563ffffffff16115b15620000c75760405163a8c278dd60e01b815260206004820152601660248201527f6d656d626572436170206d75737420626520332d32300000000000000000000060448201526064015b60405180910390fd5b835f036200010e5760405163a8c278dd60e01b815260206004820152601260248201527106465706f736974416d6f756e7420697320360741b6044820152606401620000be565b826001600160401b03165f036200015d5760405163a8c278dd60e01b815260206004820152601160248201527006379636c655365636f6e6473206973203607c1b6044820152606401620000be565b6001600160a01b038216620001b65760405163a8c278dd60e01b815260206004820152601360248201527f7573646341646472657373206973207a65726f000000000000000000000000006044820152606401620000be565b6001600160a01b038116620001ff5760405163a8c278dd60e01b815260206004820152600d60248201526c61646d696e206973207a65726f60981b6044820152606401620000be565b60026200020d8782620006e3565b506003805463ffffffff60c01b1963ffffffff8816600160a01b81026001600160c01b03199093166001600160a01b03808716919091179390931791909116600160c01b1790925560048681556005805460ff60801b196c010000000000000000000000009095026001600160801b03199091166001600160401b038916171793909316600160801b17909255600680549185166001600160a01b03199290921682179055604080516395d89b4160e01b8152905191926395d89b4192828201925f92908290030181865afa158015620002e9573d5f803e3d5ffd5b505050506040513d5f823e601f3d908101601f19168201604052620003129190810190620007af565b600790620003219082620006e3565b50816001600160a01b031663313ce5676040518163ffffffff1660e01b8152600401602060405180830381865afa1580156200035f573d5f803e3d5ffd5b505050506040513d601f19601f82011682018060405250810190620003859190620007ec565b600880546001600160481b03191660ff92909216919091179055600980546001810182555f9182527f6e1540171b6c0c960b71a7020d9f60077f6af931a8bbf590da0223dacf75c7af0180546001600160a01b0384166001600160a01b0319909116179055620003f6908262000430565b50620004237f367bc2ad66819a4f9bbe4a6c68debd212b0f4422901a1c97de96b3cdb3fc77088262000430565b5050505050505062000815565b5f828152602081815260408083206001600160a01b038516845290915281205460ff16620004d3575f838152602081815260408083206001600160a01b03861684529091529020805460ff191660011790556200048a3390565b6001600160a01b0316826001600160a01b0316847f2f8788117e7eff1d82e926ec794901d17c78024a50270940304540a733656f0d60405160405180910390a4506001620004d6565b505f5b92915050565b634e487b7160e01b5f52604160045260245ffd5b5f82601f83011262000500575f80fd5b81516001600160401b03808211156200051d576200051d620004dc565b604051601f8301601f19908116603f01168101908282118183101715620005485762000548620004dc565b816040528381526020925086602085880101111562000565575f80fd5b5f91505b8382101562000588578582018301518183018401529082019062000569565b5f602085830101528094505050505092915050565b80516001600160a01b0381168114620005b4575f80fd5b919050565b5f805f805f8060c08789031215620005cf575f80fd5b86516001600160401b0380821115620005e6575f80fd5b620005f48a838b01620004f0565b97506020890151915063ffffffff821682146200060f575f80fd5b604089015160608a0151929750955080821682146200062c575f80fd5b5092506200063d608088016200059d565b91506200064d60a088016200059d565b90509295509295509295565b600181811c908216806200066e57607f821691505b6020821081036200068d57634e487b7160e01b5f52602260045260245ffd5b50919050565b601f821115620006de57805f5260205f20601f840160051c81016020851015620006ba5750805b601f840160051c820191505b81811015620006db575f8155600101620006c6565b50505b505050565b81516001600160401b03811115620006ff57620006ff620004dc565b620007178162000710845462000659565b8462000693565b602080601f8311600181146200074d575f8415620007355750858301515b5f19600386901b1c1916600185901b178555620007a7565b5f85815260208120601f198616915b828110156200077d578886015182559484019460019091019084016200075c565b50858210156200079b57878501515f19600388901b60f8161c191681555b505060018460011b0185555b505050505050565b5f60208284031215620007c0575f80fd5b81516001600160401b03811115620007d6575f80fd5b620007e484828501620004f0565b949350505050565b5f60208284031215620007fd575f80fd5b815160ff811681146200080e575f80fd5b9392505050565b611ec180620008235f395ff3fe608060405234801561000f575f80fd5b5060043610610208575f3560e01c80638a19c8bc1161011f578063a32bf597116100a9578063d547741f11610079578063d547741f146104ee578063e6ba3bff14610501578063f2c16e6f14610509578063f3dc4f481461051c578063f851a44014610547575f80fd5b8063a32bf59714610463578063c43d75ad146104c7578063c671bcec146104cf578063d0e30db0146104e6575f80fd5b80639647732f116100ef5780639647732f146103d95780639d76ea58146104045780639eab52531461042f578063a16e56fc14610444578063a217fddf1461045c575f80fd5b80638a19c8bc146103835780638a5682991461039a5780638eedf651146103b157806391d14854146103c6575f80fd5b806336568abe116101a05780635a9b0b89116101705780635a9b0b89146103405780635c975abb1461035557806367ae9c1f146103605780637b61c320146103735780638456cb591461037b575f80fd5b806336568abe146102fd5780633b97e856146103105780633f4ba83a1461032f578063419759f514610337575f80fd5b806322f3e2d4116101db57806322f3e2d41461027f578063248a9ca3146102935780632f2ff15d146102c357806333abefcb146102d6575f80fd5b806301ffc9a71461020c57806305a95f041461023457806306fdde031461023e57806311aee38014610253575b5f80fd5b61021f61021a366004611a8f565b61055a565b60405190151581526020015b60405180910390f35b61023c610590565b005b6102466106bb565b60405161022b9190611af9565b60035461026a90600160c01b900463ffffffff1681565b60405163ffffffff909116815260200161022b565b60055461021f90600160801b900460ff1681565b6102b56102a1366004611b0b565b5f9081526020819052604090206001015490565b60405190815260200161022b565b61023c6102d1366004611b3d565b610747565b6102b57f367bc2ad66819a4f9bbe4a6c68debd212b0f4422901a1c97de96b3cdb3fc770881565b61023c61030b366004611b3d565b610771565b60085461031d9060ff1681565b60405160ff909116815260200161022b565b61023c6107a9565b6102b560045481565b6103486107be565b60405161022b9190611b67565b60015460ff1661021f565b61026a61036e366004611c9b565b6109f7565b610246610a5c565b61023c610a69565b60055461026a90600160401b900463ffffffff1681565b60055461026a90600160601b900463ffffffff1681565b6103b9610a7b565b60405161022b9190611cb4565b61021f6103d4366004611b3d565b610b16565b6005546103ec906001600160401b031681565b6040516001600160401b03909116815260200161022b565b600654610417906001600160a01b031681565b6040516001600160a01b03909116815260200161022b565b610437610b3e565b60405161022b9190611d2f565b6008546103ec9061010090046001600160401b031681565b6102b55f81565b61046b610b9e565b60405161022b9190815163ffffffff90811682526020808401516001600160a01b031690830152604080840151821690830152606080840151909116908201526080918201516001600160401b03169181019190915260a00190565b61023c610cc5565b60035461026a90600160a01b900463ffffffff1681565b61023c610d2c565b61023c6104fc366004611b3d565b610ef2565b61023c610f16565b61021f610517366004611c9b565b611147565b61021f61052a366004611c9b565b6001600160a01b03165f908152600c602052604090205460ff1690565b600354610417906001600160a01b031681565b5f6001600160e01b03198216637965db0b60e01b148061058a57506301ffc9a760e01b6001600160e01b03198316145b92915050565b6105986111a0565b6105a06111bb565b600554600160801b900460ff166105ca576040516312cafea160e01b815260040160405180910390fd5b600554600160401b900463ffffffff165f036105f957604051631fbd9dff60e11b815260040160405180910390fd5b610602336111df565b61061f5760405163148fe22160e11b815260040160405180910390fd5b6005546008545f91610643916001600160401b039182169161010090910416611d8f565b90505f61064e611233565b60035490915063ffffffff808316600160c01b909204161480158161067b5750826001600160401b031642105b156106985760405162ace4c560e51b815260040160405180910390fd5b6106a06112ba565b5050506106b960015f80516020611e6c83398151915255565b565b600280546106c890611db6565b80601f01602080910402602001604051908101604052809291908181526020018280546106f490611db6565b801561073f5780601f106107165761010080835404028352916020019161073f565b820191905f5260205f20905b81548152906001019060200180831161072257829003601f168201915b505050505081565b5f8281526020819052604090206001015461076181611606565b61076b8383611610565b50505050565b6001600160a01b038116331461079a5760405163334bd91960e11b815260040160405180910390fd5b6107a4828261169f565b505050565b5f6107b381611606565b6107bb611708565b50565b604080516101a0810182526060808252602082018190525f92820183905281018290526080810182905260a0810182905260c0810182905260e081018290526101008101829052610120810182905261014081018290526101608101829052610180810191909152604051806101a001604052806002805461083f90611db6565b80601f016020809104026020016040519081016040528092919081815260200182805461086b90611db6565b80156108b65780601f1061088d576101008083540402835291602001916108b6565b820191905f5260205f20905b81548152906001019060200180831161089957829003601f168201915b50505050508152602001600780546108cd90611db6565b80601f01602080910402602001604051908101604052809291908181526020018280546108f990611db6565b80156109445780601f1061091b57610100808354040283529160200191610944565b820191905f5260205f20905b81548152906001019060200180831161092757829003601f168201915b50505091835250506003546001600160a01b03808216602084015263ffffffff600160a01b830481166040850152600160c01b9092048216606084015260045460808401526005546001600160401b0380821660a0860152600160401b8204841660c0860152600160601b820490931660e085015260ff600160801b9091048116151561010080860191909152600654909216610120850152600854908116610140850152041661016090910152919050565b5f805b600954811015610a5457826001600160a01b031660098281548110610a2157610a21611dee565b5f918252602090912001546001600160a01b031603610a4c57610a45816001611e02565b9392505050565b6001016109fa565b505f92915050565b600780546106c890611db6565b5f610a7381611606565b6107bb61175a565b6060600b805480602002602001604051908101604052809291908181526020015f905b82821015610b0d575f8481526020908190206040805160808101825260038602909201805463ffffffff8116845264010000000090046001600160a01b03168385015260018082015492840192909252600201546001600160401b031660608301529083529092019101610a9e565b50505050905090565b5f918252602082815260408084206001600160a01b0393909316845291905290205460ff1690565b60606009805480602002602001604051908101604052809291908181526020018280548015610b9457602002820191905f5260205f20905b81546001600160a01b03168152600190910190602001808311610b76575b5050505050905090565b6040805160a0810182525f80825260208201819052918101829052606081018290526080810191909152600554600160401b900463ffffffff165f03610c0c57506040805160a0810182525f8082526020820181905291810182905260608101829052608081019190915290565b6040805160a08101909152600554600160401b900463ffffffff168082526020820190600990610c3e90600190611e15565b63ffffffff1681548110610c5457610c54611dee565b5f91825260209182902001546001600160a01b0316825201610c74611233565b63ffffffff9081168252600354600160c01b9004166020820152600554600854604090920191610cb5916001600160401b0390811691610100900416611d8f565b6001600160401b03169052919050565b600554600160801b900460ff161580610ceb5750600554600160401b900463ffffffff16155b15610cf257565b600554600854610d13916001600160401b0390811691610100900416611d8f565b6001600160401b03164211610d2457565b6106b9611795565b610d346111a0565b610d3c6111bb565b600554600160801b900460ff16610d66576040516312cafea160e01b815260040160405180910390fd5b600554600160401b900463ffffffff165f03610d9557604051631fbd9dff60e11b815260040160405180910390fd5b610d9e336111df565b610dbb5760405163148fe22160e11b815260040160405180910390fd5b600554600160401b900463ffffffff165f908152600a6020908152604080832033845290915290205460ff1615610e055760405163d5a8211560e01b815260040160405180910390fd5b600554600160401b900463ffffffff9081165f908152600a60209081526040808320338085529083528184208054600160ff1991821617909155600c909352922080549091169055600454600654610e6c936001600160a01b03909116929130916118c516565b600554604051600160401b90910463ffffffff16815233907fdaa07ca4672a4e56122ecd4e99794c02d017a3634d9ef618cb7cadc80e14aec59060200160405180910390a2600354600160c01b900463ffffffff16610ec9611233565b63ffffffff1603610edc57610edc6112ba565b6106b960015f80516020611e6c83398151915255565b5f82815260208190526040902060010154610f0c81611606565b61076b838361169f565b610f1e6111bb565b600554600160801b900460ff16610f48576040516312cafea160e01b815260040160405180910390fd5b60035463ffffffff600160a01b82048116600160c01b9092041610610f805760405163f277526560e01b815260040160405180910390fd5b610f89336111df565b15610fa7576040516340803a5f60e11b815260040160405180910390fd5b600980546001810182555f919091527f6e1540171b6c0c960b71a7020d9f60077f6af931a8bbf590da0223dacf75c7af0180546001600160a01b031916331790556003805463ffffffff600160c01b9091041690601861100683611e32565b82546101009290920a63ffffffff818102199093169183160217909155600354600160a01b81048216600160c01b90910490911603905061110057600580546bffffffff0000000000000000198116600160401b17909155600880546001600160401b03428181166101000268ffffffffffffffff0019909316929092179092555f92611094921690611d8f565b905060095f815481106110a9576110a9611dee565b5f91825260209182902001546040516001600160401b03841681526001600160a01b03909116916001917f53cea5c805e1749d2bb6154eb570a2284a985d42930b20985ef163fb43e2aaec910160405180910390a3505b600354604051600160c01b90910463ffffffff16815233907f1ac45c07596707fe057d35f9f41df855306ca15a2b0bb4cb426624b467b72e4f9060200160405180910390a2565b6005545f90600160401b900463ffffffff16810361116657505f919050565b5060055463ffffffff600160401b909104165f908152600a602090815260408083206001600160a01b039094168352929052205460ff1690565b6111a8611900565b60025f80516020611e6c83398151915255565b60015460ff16156106b95760405163d93c066560e01b815260040160405180910390fd5b5f805b600954811015610a5457826001600160a01b03166009828154811061120957611209611dee565b5f918252602090912001546001600160a01b03160361122b5750600192915050565b6001016111e2565b5f805b6009548110156112b657600554600160401b900463ffffffff165f908152600a60205260408120600980549192918490811061127457611274611dee565b5f9182526020808320909101546001600160a01b0316835282019290925260400190205460ff16156112ae57816112aa81611e32565b9250505b600101611236565b5090565b600554600160801b900460ff1615806112e05750600554600160401b900463ffffffff16155b156112e757565b6005545f9060099061130890600190600160401b900463ffffffff16611e15565b63ffffffff168154811061131e5761131e611dee565b5f9182526020822001546001600160a01b0316915061133b611233565b600554909150600160401b900463ffffffff16611356611795565b60055463ffffffff600160601b82048116600160401b9092041610611387576005805460ff60801b19169055611496565b60058054600160401b900463ffffffff169060086113a483611e32565b825461010092830a63ffffffff818102199092169290911602179091556008805468ffffffffffffffff001916426001600160401b03818116909402919091179091556005545f93506113f8921690611d8f565b60055490915060099061141a90600190600160401b900463ffffffff16611e15565b63ffffffff168154811061143057611430611dee565b5f91825260209182902001546005546040516001600160401b03851681526001600160a01b0390921692600160401b90910463ffffffff16917f53cea5c805e1749d2bb6154eb570a2284a985d42930b20985ef163fb43e2aaec910160405180910390a3505b5f8263ffffffff166004546114ab9190611e54565b6040805160808101825263ffffffff8581168083526001600160a01b0389811660208086018281528688018981526001600160401b0342811660608a01908152600b80546001810182555f9190915299516003909a027f0175b7a638427703f0dbe7bb9bbf987a2551717b34e79f33b5b1008d1fa01db9810180549551909816640100000000026001600160c01b03199095169a909916999099179290921790945592517f0175b7a638427703f0dbe7bb9bbf987a2551717b34e79f33b5b1008d1fa01dba86015594517f0175b7a638427703f0dbe7bb9bbf987a2551717b34e79f33b5b1008d1fa01dbb90940180549490921667ffffffffffffffff199094169390931790558351858152928301529293507f13929e26f22f13a2e0f7f7090a93983c585d9ef8d480bdcbbb2ac52ee73902ab910160405180910390a2801561076b5760065461076b906001600160a01b0316858361192f565b6107bb8133611964565b5f61161b8383610b16565b611698575f838152602081815260408083206001600160a01b03861684529091529020805460ff191660011790556116503390565b6001600160a01b0316826001600160a01b0316847f2f8788117e7eff1d82e926ec794901d17c78024a50270940304540a733656f0d60405160405180910390a450600161058a565b505f61058a565b5f6116aa8383610b16565b15611698575f838152602081815260408083206001600160a01b0386168085529252808320805460ff1916905551339286917ff6391f5c32d9c69d2a47ea670b442974b53935d1edc7fd64eb21e047a839171b9190a450600161058a565b61171061199d565b6001805460ff191690557f5db9ee0a495bf2e6ff9c91a7834c1ba4fdd244a5e8aa4e537bd38aeae4b073aa335b6040516001600160a01b03909116815260200160405180910390a1565b6117626111bb565b6001805460ff1916811790557f62e78cea01bee320cd4e420270b5ea74000d11b0c9f74754ebdbfc544b05a2583361173d565b6005546008546117b6916001600160401b0390811691610100900416611d8f565b6001600160401b031642116117c757565b600554600160401b900463ffffffff165f5b6009548110156118c1575f600982815481106117f7576117f7611dee565b5f91825260208083209091015463ffffffff86168352600a825260408084206001600160a01b039092168085529190925291205490915060ff1615801561185657506001600160a01b0381165f908152600c602052604090205460ff16155b156118b8576001600160a01b0381165f818152600c6020908152604091829020805460ff19166001179055905163ffffffff861681527fbc928c20fb396952151e82414d8854a3c81a0ae1b7cd98066e0ff7e61ee12037910160405180910390a25b506001016117d9565b5050565b6118d38484848460016119c0565b61076b57604051635274afe760e01b81526001600160a01b03851660048201526024015b60405180910390fd5b5f80516020611e6c833981519152546002036106b957604051633ee5aeb560e01b815260040160405180910390fd5b61193c8383836001611a2d565b6107a457604051635274afe760e01b81526001600160a01b03841660048201526024016118f7565b61196e8282610b16565b6118c15760405163e2517d3f60e01b81526001600160a01b0382166004820152602481018390526044016118f7565b60015460ff166106b957604051638dfc202b60e01b815260040160405180910390fd5b6040516323b872dd60e01b5f8181526001600160a01b038781166004528616602452604485905291602083606481808c5af1925060015f51148316611a1c578383151615611a10573d5f823e3d81fd5b5f883b113d1516831692505b604052505f60605295945050505050565b60405163a9059cbb60e01b5f8181526001600160a01b038616600452602485905291602083604481808b5af1925060015f51148316611a83578383151615611a77573d5f823e3d81fd5b5f873b113d1516831692505b60405250949350505050565b5f60208284031215611a9f575f80fd5b81356001600160e01b031981168114610a45575f80fd5b5f81518084525f5b81811015611ada57602081850181015186830182015201611abe565b505f602082860101526020601f19601f83011685010191505092915050565b602081525f610a456020830184611ab6565b5f60208284031215611b1b575f80fd5b5035919050565b80356001600160a01b0381168114611b38575f80fd5b919050565b5f8060408385031215611b4e575f80fd5b82359150611b5e60208401611b22565b90509250929050565b602081525f82516101a0806020850152611b856101c0850183611ab6565b91506020850151601f19858403016040860152611ba28382611ab6565b9250506040850151611bbf60608601826001600160a01b03169052565b50606085015163ffffffff8116608086015250608085015163ffffffff811660a08601525060a085015160c085015260c0850151611c0860e08601826001600160401b03169052565b5060e0850151610100611c228187018363ffffffff169052565b8601519050610120611c3b8682018363ffffffff169052565b8601519050610140611c508682018315159052565b8601519050610160611c6c868201836001600160a01b03169052565b8601519050610180611c828682018360ff169052565b909501516001600160401b031693019290925250919050565b5f60208284031215611cab575f80fd5b610a4582611b22565b602080825282518282018190525f919060409081850190868401855b82811015611d22578151805163ffffffff168552868101516001600160a01b03168786015285810151868601526060908101516001600160401b03169085015260809093019290850190600101611cd0565b5091979650505050505050565b602080825282518282018190525f9190848201906040850190845b81811015611d6f5783516001600160a01b031683529284019291840191600101611d4a565b50909695505050505050565b634e487b7160e01b5f52601160045260245ffd5b6001600160401b03818116838216019080821115611daf57611daf611d7b565b5092915050565b600181811c90821680611dca57607f821691505b602082108103611de857634e487b7160e01b5f52602260045260245ffd5b50919050565b634e487b7160e01b5f52603260045260245ffd5b8082018082111561058a5761058a611d7b565b63ffffffff828116828216039080821115611daf57611daf611d7b565b5f63ffffffff808316818103611e4a57611e4a611d7b565b6001019392505050565b808202811582820484141761058a5761058a611d7b56fe9b779b17422d0df92223018b32b4d1fa46e071723d6817e2486d003becc55f00a26469706673582212206414a9957487507f7f024e16cf6ff56e635b0f846058efbd9900d9b5e79ccaaa64736f6c63430008180033",
  "linkReferences": {},
  "deployedLinkReferences": {},
  "immutableReferences": {},
  "inputSourceName": "project/contracts/RotaFiCircle.sol",
  "buildInfoId": "solc-0_8_24-3af7f2905d3671bf2083f102d908953294229991"
}