{
  "_format": "hh3-artifact-1",
  "contractName": "RotaFiCircle",
  "sourceName": "contracts/RotaFiCircle.sol",
  "abi": [
    {
      "inputs": [
        {
          "internalType": "string",
          "name": "_name",
          "type": "string"
        },
        {
          "internalType": "uint32",
          "name": "_memberCap",
          "type": "uint32"
        },
        {
          "internalType": "uint256",
          "name": "_depositAmount",
          "type": "uint256"
        },
        {
          "internalType": "uint64",
          "name": "_cycleSeconds",
          "type": "uint64"
        },
        {
          "internalType": "address",
          "name": "_usdcAddress",
          "type": "address"
        },
        {
          "internalType": "address",
          "name": "_admin",
          "type": "address"
        }
      ],
      "stateMutability": "nonpayable",
      "type": "constructor"
    },
    {
      "inputs": [],
      "name": "AccessControlBadConfirmation",
      "type": "error"
    },
    {
      "inputs": [
        {
          "internalType": "address",
          "name": "account",
          "type": "address"
        },
        {
          "internalType": "bytes32",
          "name": "neededRole",
          "type": "bytes32"
        }
      ],
      "name": "AccessControlUnauthorizedAccount",
      "type": "error"
    },
    {
      "inputs": [],
      "name": "AlreadyDeposited",
      "type": "error"
    },
    {
      "inputs": [],
      "name": "AlreadyMember",
      "type": "error"
    },
    {
      "inputs": [],
      "name": "CircleComplete",
      "type": "error"
    },
    {
      "inputs": [],
      "name": "CircleFull",
      "type": "error"
    },
    {
      "inputs": [],
      "name": "CircleNotStarted",
      "type": "error"
    },
    {
      "inputs": [],
      "name": "EnforcedPause",
      "type": "error"
    },
    {
      "inputs": [],
      "name": "ExpectedPause",
      "type": "error"
    },
    {
      "inputs": [
        {
          "internalType": "string",
          "name": "reason",
          "type": "string"
        }
      ],
      "name": "InvalidParams",
      "type": "error"
    },
    {
      "inputs": [],
      "name": "NotMember",
      "type": "error"
    },
    {
      "inputs": [],
      "name": "ReentrancyGuardReentrantCall",
      "type": "error"
    },
    {
      "inputs": [],
      "name": "RoundNotComplete",
      "type": "error"
    },
    {
      "inputs": [
        {
          "internalType": "address",
          "name": "token",
          "type": "address"
        }
      ],
      "name": "SafeERC20FailedOperation",
      "type": "error"
    },
    {
      "anonymous": false,
      "inputs": [
        {
          "indexed": true,
          "internalType": "address",
          "name": "member",
          "type": "address"
        },
        {
          "indexed": false,
          "internalType": "uint32",
          "name": "round",
          "type": "uint32"
        }
      ],
      "name": "DepositMade",
      "type": "event"
    },
    {
      "anonymous": false,
      "inputs": [
        {
          "indexed": true,
          "internalType": "address",
          "name": "member",
          "type": "address"
        },
        {
          "indexed": false,
          "internalType": "uint32",
          "name": "newMemberCount",
          "type": "uint32"
        }
      ],
      "name": "MemberJoined",
      "type": "event"
    },
    {
      "anonymous": false,
      "inputs": [
        {
          "indexed": true,
          "internalType": "address",
          "name": "member",
          "type": "address"
        },
        {
          "indexed": false,
          "internalType": "uint32",
          "name": "round",
          "type": "uint32"
        }
      ],
      "name": "MemberPenalized",
      "type": "event"
    },
    {
      "anonymous": false,
      "inputs": [
        {
          "indexed": false,
          "internalType": "address",
          "name": "account",
          "type": "address"
        }
      ],
      "name": "Paused",
      "type": "event"
    },
    {
      "anonymous": false,
      "inputs": [
        {
          "indexed": true,
          "internalType": "address",
          "name": "recipient",
          "type": "address"
        },
        {
          "indexed": false,
          "internalType": "uint256",
          "name": "amount",
          "type": "uint256"
        },
        {
          "indexed": false,
          "internalType": "uint32",
          "name": "round",
          "type": "uint32"
        }
      ],
      "name": "PotPaidOut",
      "type": "event"
    },
    {
      "anonymous": false,
      "inputs": [
        {
          "indexed": true,
          "internalType": "bytes32",
          "name": "role",
          "type": "bytes32"
        },
        {
          "indexed": true,
          "internalType": "bytes32",
          "name": "previousAdminRole",
          "type": "bytes32"
        },
        {
          "indexed": true,
          "internalType": "bytes32",
          "name": "newAdminRole",
          "type": "bytes32"
        }
      ],
      "name": "RoleAdminChanged",
      "type": "event"
    },
    {
      "anonymous": false,
      "inputs": [
        {
          "indexed": true,
          "internalType": "bytes32",
          "name": "role",
          "type": "bytes32"
        },
        {
          "indexed": true,
          "internalType": "address",
          "name": "account",
          "type": "address"
        },
        {
          "indexed": true,
          "internalType": "address",
          "name": "sender",
          "type": "address"
        }
      ],
      "name": "RoleGranted",
      "type": "event"
    },
    {
      "anonymous": false,
      "inputs": [
        {
          "indexed": true,
          "internalType": "bytes32",
          "name": "role",
          "type": "bytes32"
        },
        {
          "indexed": true,
          "internalType": "address",
          "name": "account",
          "type": "address"
        },
        {
          "indexed": true,
          "internalType": "address",
          "name": "sender",
          "type": "address"
        }
      ],
      "name": "RoleRevoked",
      "type": "event"
    },
    {
      "anonymous": false,
      "inputs": [
        {
          "indexed": true,
          "internalType": "uint32",
          "name": "round",
          "type": "uint32"
        },
        {
          "indexed": true,
          "internalType": "address",
          "name": "recipient",
          "type": "address"
        },
        {
          "indexed": false,
          "internalType": "uint64",
          "name": "deadline",
          "type": "uint64"
        }
      ],
      "name": "RoundStarted",
      "type": "event"
    },
    {
      "anonymous": false,
      "inputs": [
        {
          "indexed": false,
          "internalType": "address",
          "name": "account",
          "type": "address"
        }
      ],
      "name": "Unpaused",
      "type": "event"
    },
    {
      "inputs": [],
      "name": "CIRCLE_ADMIN_ROLE",
      "outputs": [
        {
          "internalType": "bytes32",
          "name": "",
          "type": "bytes32"
        }
      ],
      "stateMutability": "view",
      "type": "function"
    },
    {
      "inputs": [],
      "name": "DEFAULT_ADMIN_ROLE",
      "outputs": [
        {
          "internalType": "bytes32",
          "name": "",
          "type": "bytes32"
        }
      ],
      "stateMutability": "view",
      "type": "function"
    },
    {
      "inputs": [],
      "name": "admin",
      "outputs": [
        {
          "internalType": "address",
          "name": "",
          "type": "address"
        }
      ],
      "stateMutability": "view",
      "type": "function"
    },
    {
      "inputs": [],
      "name": "currentRound",
      "outputs": [
        {
          "internalType": "uint32",
          "name": "",
          "type": "uint32"
        }
      ],
      "stateMutability": "view",
      "type": "function"
    },
    {
      "inputs": [],
      "name": "cycleSeconds",
      "outputs": [
        {
          "internalType": "uint64",
          "name": "",
          "type": "uint64"
        }
      ],
      "stateMutability": "view",
      "type": "function"
    },
    {
      "inputs": [],
      "name": "deposit",
      "outputs": [],
      "stateMutability": "nonpayable",
      "type": "function"
    },
    {
      "inputs": [],
      "name": "depositAmount",
      "outputs": [
        {
          "internalType": "uint256",
          "name": "",
          "type": "uint256"
        }
      ],
      "stateMutability": "view",
      "type": "function"
    },
    {
      "inputs": [],
      "name": "flagLateMembers",
      "outputs": [],
      "stateMutability": "nonpayable",
      "type": "function"
    },
    {
      "inputs": [],
      "name": "getCurrentRound",
      "outputs": [
        {
          "components": [
            {
              "internalType": "uint32",
              "name": "roundIndex",
              "type": "uint32"
            },
            {
              "internalType": "address",
              "name": "recipient",
              "type": "address"
            },
            {
              "internalType": "uint32",
              "name": "depositsIn",
              "type": "uint32"
            },
            {
              "internalType": "uint32",
              "name": "depositsNeeded",
              "type": "uint32"
            },
            {
              "internalType": "uint64",
              "name": "deadline",
              "type": "uint64"
            }
          ],
          "internalType": "struct RotaFiCircle.RoundView",
          "name": "",
          "type": "tuple"
        }
      ],
      "stateMutability": "view",
      "type": "function"
    },
    {
      "inputs": [],
      "name": "getInfo",
      "outputs": [
        {
          "components": [
            {
              "internalType": "string",
              "name": "name",
              "type": "string"
            },
            {
              "internalType": "address",
              "name": "admin",
              "type": "address"
            },
            {
              "internalType": "uint32",
              "name": "memberCap",
              "type": "uint32"
            },
            {
              "internalType": "uint32",
              "name": "memberCount",
              "type": "uint32"
            },
            {
              "internalType": "uint256",
              "name": "depositAmount",
              "type": "uint256"
            },
            {
              "internalType": "uint64",
              "name": "cycleSeconds",
              "type": "uint64"
            },
            {
              "internalType": "uint32",
              "name": "currentRound",
              "type": "uint32"
            },
            {
              "internalType": "uint32",
              "name": "totalRounds",
              "type": "uint32"
            },
            {
              "internalType": "bool",
              "name": "isActive",
              "type": "bool"
            },
            {
              "internalType": "address",
              "name": "usdcAddress",
              "type": "address"
            },
            {
              "internalType": "uint64",
              "name": "roundStartedAt",
              "type": "uint64"
            }
          ],
          "internalType": "struct RotaFiCircle.CircleInfo",
          "name": "",
          "type": "tuple"
        }
      ],
      "stateMutability": "view",
      "type": "function"
    },
    {
      "inputs": [
        {
          "internalType": "address",
          "name": "member",
          "type": "address"
        }
      ],
      "name": "getMemberPosition",
      "outputs": [
        {
          "internalType": "uint32",
          "name": "",
          "type": "uint32"
        }
      ],
      "stateMutability": "view",
      "type": "function"
    },
    {
      "inputs": [],
      "name": "getMembers",
      "outputs": [
        {
          "internalType": "address[]",
          "name": "",
          "type": "address[]"
        }
      ],
      "stateMutability": "view",
      "type": "function"
    },
    {
      "inputs": [],
      "name": "getPayoutHistory",
      "outputs": [
        {
          "components": [
            {
              "internalType": "uint32",
              "name": "round",
              "type": "uint32"
            },
            {
              "internalType": "address",
              "name": "recipient",
              "type": "address"
            },
            {
              "internalType": "uint256",
              "name": "amount",
              "type": "uint256"
            },
            {
              "internalType": "uint64",
              "name": "timestamp",
              "type": "uint64"
            }
          ],
          "internalType": "struct RotaFiCircle.PayoutRecord[]",
          "name": "",
          "type": "tuple[]"
        }
      ],
      "stateMutability": "view",
      "type": "function"
    },
    {
      "inputs": [
        {
          "internalType": "bytes32",
          "name": "role",
          "type": "bytes32"
        }
      ],
      "name": "getRoleAdmin",
      "outputs": [
        {
          "internalType": "bytes32",
          "name": "",
          "type": "bytes32"
        }
      ],
      "stateMutability": "view",
      "type": "function"
    },
    {
      "inputs": [
        {
          "internalType": "bytes32",
          "name": "role",
          "type": "bytes32"
        },
        {
          "internalType": "address",
          "name": "account",
          "type": "address"
        }
      ],
      "name": "grantRole",
      "outputs": [],
      "stateMutability": "nonpayable",
      "type": "function"
    },
    {
      "inputs": [
        {
          "internalType": "address",
          "name": "member",
          "type": "address"
        }
      ],
      "name": "hasDeposited",
      "outputs": [
        {
          "internalType": "bool",
          "name": "",
          "type": "bool"
        }
      ],
      "stateMutability": "view",
      "type": "function"
    },
    {
      "inputs": [
        {
          "internalType": "bytes32",
          "name": "role",
          "type": "bytes32"
        },
        {
          "internalType": "address",
          "name": "account",
          "type": "address"
        }
      ],
      "name": "hasRole",
      "outputs": [
        {
          "internalType": "bool",
          "name": "",
          "type": "bool"
        }
      ],
      "stateMutability": "view",
      "type": "function"
    },
    {
      "inputs": [],
      "name": "isActive",
      "outputs": [
        {
          "internalType": "bool",
          "name": "",
          "type": "bool"
        }
      ],
      "stateMutability": "view",
      "type": "function"
    },
    {
      "inputs": [
        {
          "internalType": "address",
          "name": "member",
          "type": "address"
        }
      ],
      "name": "isPenalized",
      "outputs": [
        {
          "internalType": "bool",
          "name": "",
          "type": "bool"
        }
      ],
      "stateMutability": "view",
      "type": "function"
    },
    {
      "inputs": [],
      "name": "joinCircle",
      "outputs": [],
      "stateMutability": "nonpayable",
      "type": "function"
    },
    {
      "inputs": [],
      "name": "memberCap",
      "outputs": [
        {
          "internalType": "uint32",
          "name": "",
          "type": "uint32"
        }
      ],
      "stateMutability": "view",
      "type": "function"
    },
    {
      "inputs": [],
      "name": "memberCount",
      "outputs": [
        {
          "internalType": "uint32",
          "name": "",
          "type": "uint32"
        }
      ],
      "stateMutability": "view",
      "type": "function"
    },
    {
      "inputs": [],
      "name": "name",
      "outputs": [
        {
          "internalType": "string",
          "name": "",
          "type": "string"
        }
      ],
      "stateMutability": "view",
      "type": "function"
    },
    {
      "inputs": [],
      "name": "pause",
      "outputs": [],
      "stateMutability": "nonpayable",
      "type": "function"
    },
    {
      "inputs": [],
      "name": "paused",
      "outputs": [
        {
          "internalType": "bool",
          "name": "",
          "type": "bool"
        }
      ],
      "stateMutability": "view",
      "type": "function"
    },
    {
      "inputs": [
        {
          "internalType": "bytes32",
          "name": "role",
          "type": "bytes32"
        },
        {
          "internalType": "address",
          "name": "callerConfirmation",
          "type": "address"
        }
      ],
      "name": "renounceRole",
      "outputs": [],
      "stateMutability": "nonpayable",
      "type": "function"
    },
    {
      "inputs": [
        {
          "internalType": "bytes32",
          "name": "role",
          "type": "bytes32"
        },
        {
          "internalType": "address",
          "name": "account",
          "type": "address"
        }
      ],
      "name": "revokeRole",
      "outputs": [],
      "stateMutability": "nonpayable",
      "type": "function"
    },
    {
      "inputs": [],
      "name": "roundStartedAt",
      "outputs": [
        {
          "internalType": "uint64",
          "name": "",
          "type": "uint64"
        }
      ],
      "stateMutability": "view",
      "type": "function"
    },
    {
      "inputs": [
        {
          "internalType": "bytes4",
          "name": "interfaceId",
          "type": "bytes4"
        }
      ],
      "name": "supportsInterface",
      "outputs": [
        {
          "internalType": "bool",
          "name": "",
          "type": "bool"
        }
      ],
      "stateMutability": "view",
      "type": "function"
    },
    {
      "inputs": [],
      "name": "totalRounds",
      "outputs": [
        {
          "internalType": "uint32",
          "name": "",
          "type": "uint32"
        }
      ],
      "stateMutability": "view",
      "type": "function"
    },
    {
      "inputs": [],
      "name": "triggerPayout",
      "outputs": [],
      "stateMutability": "nonpayable",
      "type": "function"
    },
    {
      "inputs": [],
      "name": "unpause",
      "outputs": [],
      "stateMutability": "nonpayable",
      "type": "function"
    },
    {
      "inputs": [],
      "name": "usdcAddress",
      "outputs": [
        {
          "internalType": "address",
          "name": "",
          "type": "address"
        }
      ],
      "stateMutability": "view",
      "type": "function"
    }
  ],
  "bytecode": "0x608060405234801562000010575f80fd5b50604051620024043803806200240483398101604081905262000033916200043f565b60017f9b779b17422d0df92223018b32b4d1fa46e071723d6817e2486d003becc55f0055600363ffffffff8616108062000073575060148563ffffffff16115b15620000c75760405163a8c278dd60e01b815260206004820152601660248201527f6d656d626572436170206d75737420626520332d32300000000000000000000060448201526064015b60405180910390fd5b835f036200010e5760405163a8c278dd60e01b815260206004820152601260248201527106465706f736974416d6f756e7420697320360741b6044820152606401620000be565b826001600160401b03165f036200015d5760405163a8c278dd60e01b815260206004820152601160248201527006379636c655365636f6e6473206973203607c1b6044820152606401620000be565b6001600160a01b038216620001b65760405163a8c278dd60e01b815260206004820152601360248201527f7573646341646472657373206973207a65726f000000000000000000000000006044820152606401620000be565b6001600160a01b038116620001ff5760405163a8c278dd60e01b815260206004820152600d60248201526c61646d696e206973207a65726f60981b6044820152606401620000be565b60026200020d8782620005e8565b506003805463ffffffff60c01b1963ffffffff8816600160a01b81026001600160c01b03199093166001600160a01b038087169182179490941792909216600160c01b1790935560048790556005805460ff60801b196c010000000000000000000000009095026001600160801b03199091166001600160401b038916171793909316600160801b17909255600680546001600160e01b031916918516919091179055600780546001810182555f9182527fa66cc928b5edb82af9bd49922954155ab7b0942694bea4ce44661d9a8736c6880180546001600160a01b031916909217909155620002fe908262000338565b506200032b7f367bc2ad66819a4f9bbe4a6c68debd212b0f4422901a1c97de96b3cdb3fc77088262000338565b50505050505050620006b4565b5f828152602081815260408083206001600160a01b038516845290915281205460ff16620003db575f838152602081815260408083206001600160a01b03861684529091529020805460ff19166001179055620003923390565b6001600160a01b0316826001600160a01b0316847f2f8788117e7eff1d82e926ec794901d17c78024a50270940304540a733656f0d60405160405180910390a4506001620003de565b505f5b92915050565b634e487b7160e01b5f52604160045260245ffd5b805163ffffffff811681146200040c575f80fd5b919050565b80516001600160401b03811681146200040c575f80fd5b80516001600160a01b03811681146200040c575f80fd5b5f805f805f8060c0878903121562000455575f80fd5b86516001600160401b03808211156200046c575f80fd5b818901915089601f83011262000480575f80fd5b815181811115620004955762000495620003e4565b604051601f8201601f19908116603f01168101908382118183101715620004c057620004c0620003e4565b81604052828152602093508c84848701011115620004dc575f80fd5b5f91505b82821015620004ff5784820184015181830185015290830190620004e0565b5f848483010152809a5050505062000519818a01620003f8565b9650505060408701519350620005326060880162000411565b9250620005426080880162000428565b91506200055260a0880162000428565b90509295509295509295565b600181811c908216806200057357607f821691505b6020821081036200059257634e487b7160e01b5f52602260045260245ffd5b50919050565b601f821115620005e357805f5260205f20601f840160051c81016020851015620005bf5750805b601f840160051c820191505b81811015620005e0575f8155600101620005cb565b50505b505050565b81516001600160401b03811115620006045762000604620003e4565b6200061c816200061584546200055e565b8462000598565b602080601f83116001811462000652575f84156200063a5750858301515b5f19600386901b1c1916600185901b178555620006ac565b5f85815260208120601f198616915b82811015620006825788860151825594840194600190910190840162000661565b5085821015620006a057878501515f19600388901b60f8161c191681555b505060018460011b0185555b505050505050565b611d4280620006c25f395ff3fe608060405234801561000f575f80fd5b50600436106101f2575f3560e01c80638a19c8bc11610114578063a32bf597116100a9578063d547741f11610079578063d547741f146104b3578063e6ba3bff146104c6578063f2c16e6f146104ce578063f3dc4f48146104e1578063f851a4401461050c575f80fd5b8063a32bf59714610428578063c43d75ad1461048c578063c671bcec14610494578063d0e30db0146104ab575f80fd5b80639647732f116100e45780639647732f146103c75780639eab5253146103f2578063a16e56fc14610407578063a217fddf14610421575f80fd5b80638a19c8bc146103715780638a568299146103885780638eedf6511461039f57806391d14854146103b4575f80fd5b806333abefcb1161018a5780635a9b0b891161015a5780635a9b0b89146103365780635c975abb1461034b57806367ae9c1f146103565780638456cb5914610369575f80fd5b806333abefcb146102eb57806336568abe146103125780633f4ba83a14610325578063419759f51461032d575f80fd5b806311aee380116101c557806311aee3801461026857806322f3e2d414610294578063248a9ca3146102a85780632f2ff15d146102d8575f80fd5b806301ffc9a7146101f657806302d454571461021e57806305a95f041461024957806306fdde0314610253575b5f80fd5b61020961020436600461194b565b61051f565b60405190151581526020015b60405180910390f35b600654610231906001600160a01b031681565b6040516001600160a01b039091168152602001610215565b610251610555565b005b61025b61099e565b60405161021591906119b5565b60035461027f90600160c01b900463ffffffff1681565b60405163ffffffff9091168152602001610215565b60055461020990600160801b900460ff1681565b6102ca6102b63660046119c7565b5f9081526020819052604090206001015490565b604051908152602001610215565b6102516102e63660046119f9565b610a2a565b6102ca7f367bc2ad66819a4f9bbe4a6c68debd212b0f4422901a1c97de96b3cdb3fc770881565b6102516103203660046119f9565b610a54565b610251610a8c565b6102ca60045481565b61033e610aa1565b6040516102159190611a23565b60015460ff16610209565b61027f610364366004611b1c565b610c2d565b610251610c92565b60055461027f90600160401b900463ffffffff1681565b60055461027f90600160601b900463ffffffff1681565b6103a7610ca4565b6040516102159190611b35565b6102096103c23660046119f9565b610d3f565b6005546103da906001600160401b031681565b6040516001600160401b039091168152602001610215565b6103fa610d67565b6040516102159190611bb0565b6006546103da90600160a01b90046001600160401b031681565b6102ca5f81565b610430610dc7565b6040516102159190815163ffffffff90811682526020808401516001600160a01b031690830152604080840151821690830152606080840151909116908201526080918201516001600160401b03169181019190915260a00190565b610251610ef0565b60035461027f90600160a01b900463ffffffff1681565b610251610f59565b6102516104c13660046119f9565b6110f4565b610251611118565b6102096104dc366004611b1c565b61134d565b6102096104ef366004611b1c565b6001600160a01b03165f908152600a602052604090205460ff1690565b600354610231906001600160a01b031681565b5f6001600160e01b03198216637965db0b60e01b148061054f57506301ffc9a760e01b6001600160e01b03198316145b92915050565b61055d6113a6565b6105656113c1565b600554600160801b900460ff1661058f576040516312cafea160e01b815260040160405180910390fd5b600554600160401b900463ffffffff165f036105be57604051631fbd9dff60e11b815260040160405180910390fd5b6105c7336113e5565b6105e45760405163148fe22160e11b815260040160405180910390fd5b6005546006545f9161060a916001600160401b0391821691600160a01b90910416611c10565b90505f610615611439565b60035490915063ffffffff808316600160c01b90920416148015816106425750826001600160401b031642105b1561065f5760405162ace4c560e51b815260040160405180910390fd5b6005545f9060079061068090600190600160401b900463ffffffff16611c37565b63ffffffff168154811061069657610696611c54565b5f918252602090912001546005546001600160a01b039091169150600160401b900463ffffffff166106c66114c0565b60055463ffffffff600160601b82048116600160401b90920416106106f7576005805460ff60801b19169055610810565b60058054600160401b900463ffffffff1690600861071483611c68565b825463ffffffff9182166101009390930a928302919092021990911617905550600680546001600160401b0342818116600160a01b0267ffffffffffffffff60a01b19909316929092179092556005545f9261077292911690611c10565b60055490915060079061079490600190600160401b900463ffffffff16611c37565b63ffffffff16815481106107aa576107aa611c54565b5f91825260209182902001546005546040516001600160401b03851681526001600160a01b0390921692600160401b90910463ffffffff16917f53cea5c805e1749d2bb6154eb570a2284a985d42930b20985ef163fb43e2aaec910160405180910390a3505b5f8463ffffffff166004546108259190611c8a565b6040805160808101825263ffffffff8581168083526001600160a01b0388811660208086018281528688018981526001600160401b0342811660608a01908152600980546001810182555f9190915299516003909a027f6e1540171b6c0c960b71a7020d9f60077f6af931a8bbf590da0223dacf75c7af810180549551909816640100000000026001600160c01b03199095169a909916999099179290921790945592517f6e1540171b6c0c960b71a7020d9f60077f6af931a8bbf590da0223dacf75c7b086015594517f6e1540171b6c0c960b71a7020d9f60077f6af931a8bbf590da0223dacf75c7b190940180549490921667ffffffffffffffff199094169390931790558351858152928301529293507f13929e26f22f13a2e0f7f7090a93983c585d9ef8d480bdcbbb2ac52ee73902ab910160405180910390a2801561098057600654610980906001600160a01b031684836115f2565b50505050505061099c60015f80516020611ced83398151915255565b565b600280546109ab90611ca1565b80601f01602080910402602001604051908101604052809291908181526020018280546109d790611ca1565b8015610a225780601f106109f957610100808354040283529160200191610a22565b820191905f5260205f20905b815481529060010190602001808311610a0557829003601f168201915b505050505081565b5f82815260208190526040902060010154610a448161162c565b610a4e8383611636565b50505050565b6001600160a01b0381163314610a7d5760405163334bd91960e11b815260040160405180910390fd5b610a8782826116c5565b505050565b5f610a968161162c565b610a9e61172e565b50565b604080516101608101825260608082525f6020830181905292820183905281018290526080810182905260a0810182905260c0810182905260e081018290526101008101829052610120810182905261014081019190915260405180610160016040528060028054610b1290611ca1565b80601f0160208091040260200160405190810160405280929190818152602001828054610b3e90611ca1565b8015610b895780601f10610b6057610100808354040283529160200191610b89565b820191905f5260205f20905b815481529060010190602001808311610b6c57829003601f168201915b50505091835250506003546001600160a01b038082166020840152600160a01b80830463ffffffff9081166040860152600160c01b9093048316606085015260045460808501526005546001600160401b0380821660a0870152600160401b8204851660c0870152600160601b820490941660e0860152600160801b900460ff16151561010085015260065491821661012085015290041661014090910152919050565b5f805b600754811015610c8a57826001600160a01b031660078281548110610c5757610c57611c54565b5f918252602090912001546001600160a01b031603610c8257610c7b816001611cd9565b9392505050565b600101610c30565b505f92915050565b5f610c9c8161162c565b610a9e611780565b60606009805480602002602001604051908101604052809291908181526020015f905b82821015610d36575f8481526020908190206040805160808101825260038602909201805463ffffffff8116845264010000000090046001600160a01b03168385015260018082015492840192909252600201546001600160401b031660608301529083529092019101610cc7565b50505050905090565b5f918252602082815260408084206001600160a01b0393909316845291905290205460ff1690565b60606007805480602002602001604051908101604052809291908181526020018280548015610dbd57602002820191905f5260205f20905b81546001600160a01b03168152600190910190602001808311610d9f575b5050505050905090565b6040805160a0810182525f80825260208201819052918101829052606081018290526080810191909152600554600160401b900463ffffffff165f03610e3557506040805160a0810182525f8082526020820181905291810182905260608101829052608081019190915290565b6040805160a08101909152600554600160401b900463ffffffff168082526020820190600790610e6790600190611c37565b63ffffffff1681548110610e7d57610e7d611c54565b5f91825260209182902001546001600160a01b0316825201610e9d611439565b63ffffffff9081168252600354600160c01b9004166020820152600554600654604090920191610ee0916001600160401b0390811691600160a01b900416611c10565b6001600160401b03169052919050565b600554600160801b900460ff161580610f165750600554600160401b900463ffffffff16155b15610f1d57565b600554600654610f40916001600160401b0390811691600160a01b900416611c10565b6001600160401b03164211610f5157565b61099c6114c0565b610f616113a6565b610f696113c1565b600554600160801b900460ff16610f93576040516312cafea160e01b815260040160405180910390fd5b600554600160401b900463ffffffff165f03610fc257604051631fbd9dff60e11b815260040160405180910390fd5b610fcb336113e5565b610fe85760405163148fe22160e11b815260040160405180910390fd5b600554600160401b900463ffffffff165f90815260086020908152604080832033845290915290205460ff16156110325760405163d5a8211560e01b815260040160405180910390fd5b600554600160401b900463ffffffff9081165f908152600860209081526040808320338085529083528184208054600160ff1991821617909155600a909352922080549091169055600454600654611099936001600160a01b03909116929130916117bb16565b600554604051600160401b90910463ffffffff16815233907fdaa07ca4672a4e56122ecd4e99794c02d017a3634d9ef618cb7cadc80e14aec59060200160405180910390a261099c60015f80516020611ced83398151915255565b5f8281526020819052604090206001015461110e8161162c565b610a4e83836116c5565b6111206113c1565b600554600160801b900460ff1661114a576040516312cafea160e01b815260040160405180910390fd5b60035463ffffffff600160a01b82048116600160c01b90920416106111825760405163f277526560e01b815260040160405180910390fd5b61118b336113e5565b156111a9576040516340803a5f60e11b815260040160405180910390fd5b600780546001810182555f919091527fa66cc928b5edb82af9bd49922954155ab7b0942694bea4ce44661d9a8736c6880180546001600160a01b031916331790556003805463ffffffff600160c01b9091041690601861120883611c68565b82546101009290920a63ffffffff818102199093169183160217909155600354600160a01b81048216600160c01b90910490911603905061130657600580546bffffffff0000000000000000198116600160401b17909155600680546001600160401b0342818116600160a01b0267ffffffffffffffff60a01b19909316929092179092555f9261129a921690611c10565b905060075f815481106112af576112af611c54565b5f91825260209182902001546040516001600160401b03841681526001600160a01b03909116916001917f53cea5c805e1749d2bb6154eb570a2284a985d42930b20985ef163fb43e2aaec910160405180910390a3505b600354604051600160c01b90910463ffffffff16815233907f1ac45c07596707fe057d35f9f41df855306ca15a2b0bb4cb426624b467b72e4f9060200160405180910390a2565b6005545f90600160401b900463ffffffff16810361136c57505f919050565b5060055463ffffffff600160401b909104165f9081526008602090815260408083206001600160a01b039094168352929052205460ff1690565b6113ae6117f1565b60025f80516020611ced83398151915255565b60015460ff161561099c5760405163d93c066560e01b815260040160405180910390fd5b5f805b600754811015610c8a57826001600160a01b03166007828154811061140f5761140f611c54565b5f918252602090912001546001600160a01b0316036114315750600192915050565b6001016113e8565b5f805b6007548110156114bc57600554600160401b900463ffffffff165f908152600860205260408120600780549192918490811061147a5761147a611c54565b5f9182526020808320909101546001600160a01b0316835282019290925260400190205460ff16156114b457816114b081611c68565b9250505b60010161143c565b5090565b6005546006546114e3916001600160401b0390811691600160a01b900416611c10565b6001600160401b031642116114f457565b600554600160401b900463ffffffff165f5b6007548110156115ee575f6007828154811061152457611524611c54565b5f91825260208083209091015463ffffffff861683526008825260408084206001600160a01b039092168085529190925291205490915060ff1615801561158357506001600160a01b0381165f908152600a602052604090205460ff16155b156115e5576001600160a01b0381165f818152600a6020908152604091829020805460ff19166001179055905163ffffffff861681527fbc928c20fb396952151e82414d8854a3c81a0ae1b7cd98066e0ff7e61ee12037910160405180910390a25b50600101611506565b5050565b6115ff8383836001611820565b610a8757604051635274afe760e01b81526001600160a01b03841660048201526024015b60405180910390fd5b610a9e8133611882565b5f6116418383610d3f565b6116be575f838152602081815260408083206001600160a01b03861684529091529020805460ff191660011790556116763390565b6001600160a01b0316826001600160a01b0316847f2f8788117e7eff1d82e926ec794901d17c78024a50270940304540a733656f0d60405160405180910390a450600161054f565b505f61054f565b5f6116d08383610d3f565b156116be575f838152602081815260408083206001600160a01b0386168085529252808320805460ff1916905551339286917ff6391f5c32d9c69d2a47ea670b442974b53935d1edc7fd64eb21e047a839171b9190a450600161054f565b6117366118bb565b6001805460ff191690557f5db9ee0a495bf2e6ff9c91a7834c1ba4fdd244a5e8aa4e537bd38aeae4b073aa335b6040516001600160a01b03909116815260200160405180910390a1565b6117886113c1565b6001805460ff1916811790557f62e78cea01bee320cd4e420270b5ea74000d11b0c9f74754ebdbfc544b05a25833611763565b6117c98484848460016118de565b610a4e57604051635274afe760e01b81526001600160a01b0385166004820152602401611623565b5f80516020611ced8339815191525460020361099c57604051633ee5aeb560e01b815260040160405180910390fd5b60405163a9059cbb60e01b5f8181526001600160a01b038616600452602485905291602083604481808b5af1925060015f5114831661187657838315161561186a573d5f823e3d81fd5b5f873b113d1516831692505b60405250949350505050565b61188c8282610d3f565b6115ee5760405163e2517d3f60e01b81526001600160a01b038216600482015260248101839052604401611623565b60015460ff1661099c57604051638dfc202b60e01b815260040160405180910390fd5b6040516323b872dd60e01b5f8181526001600160a01b038781166004528616602452604485905291602083606481808c5af1925060015f5114831661193a57838315161561192e573d5f823e3d81fd5b5f883b113d1516831692505b604052505f60605295945050505050565b5f6020828403121561195b575f80fd5b81356001600160e01b031981168114610c7b575f80fd5b5f81518084525f5b818110156119965760208185018101518683018201520161197a565b505f602082860101526020601f19601f83011685010191505092915050565b602081525f610c7b6020830184611972565b5f602082840312156119d7575f80fd5b5035919050565b80356001600160a01b03811681146119f4575f80fd5b919050565b5f8060408385031215611a0a575f80fd5b82359150611a1a602084016119de565b90509250929050565b602081525f8251610160806020850152611a41610180850183611972565b91506020850151611a5d60408601826001600160a01b03169052565b50604085015163ffffffff8116606086015250606085015163ffffffff8116608086015250608085015160a085015260a0850151611aa660c08601826001600160401b03169052565b5060c085015163ffffffff811660e08601525060e0850151610100611ad28187018363ffffffff169052565b8601519050610120611ae78682018315159052565b8601519050610140611b03868201836001600160a01b03169052565b909501516001600160401b031693019290925250919050565b5f60208284031215611b2c575f80fd5b610c7b826119de565b602080825282518282018190525f919060409081850190868401855b82811015611ba3578151805163ffffffff168552868101516001600160a01b03168786015285810151868601526060908101516001600160401b03169085015260809093019290850190600101611b51565b5091979650505050505050565b602080825282518282018190525f9190848201906040850190845b81811015611bf05783516001600160a01b031683529284019291840191600101611bcb565b50909695505050505050565b634e487b7160e01b5f52601160045260245ffd5b6001600160401b03818116838216019080821115611c3057611c30611bfc565b5092915050565b63ffffffff828116828216039080821115611c3057611c30611bfc565b634e487b7160e01b5f52603260045260245ffd5b5f63ffffffff808316818103611c8057611c80611bfc565b6001019392505050565b808202811582820484141761054f5761054f611bfc565b600181811c90821680611cb557607f821691505b602082108103611cd357634e487b7160e01b5f52602260045260245ffd5b50919050565b8082018082111561054f5761054f611bfc56fe9b779b17422d0df92223018b32b4d1fa46e071723d6817e2486d003becc55f00a26469706673582212209262acd5581d9403531a8bcad6954a5e3fc457851c3f91cdc0f5be3452e31fc264736f6c63430008180033",
  "linkReferences": {},
  "deployedLinkReferences": {},
  "immutableReferences": {},
  "inputSourceName": "project/contracts/RotaFiCircle.sol",
  "buildInfoId": "solc-0_8_24-ca0b0afdb196df138a7abe851dc476a5dee7f631"
}